:10000000704300207962000001CA011001CA01108A
:1000100001CA011001CA011001CA011001CA011070
:1000200001CA011001CA011001CA011001CA011060
:0C00300001CA011001CA01103FCA0110F2
:10003C0021490868C2430A600A680242FAD1704733
:10004C001E490A68002AFCD1CA610860C8690028E8
:10005C00FCD00020C86148687047194801686FF0EF
:10006C000202114041F400710160032115488160C6
:10007C0041F2300141610121C160502141610121F6
:10008C00C1604FF4CA6141610121C16001607047D8
:10009C000D4802680A6082684A60C2688A60406BD8
:1000AC0020F0784040F08050C8607047704701469F
:1000BC001022064802F06EB91010044000100440E3
:1000CC0000000460004104404C1300501800002153
:1000DC007047012070470000200000000A0000005B
:100100003C0000000000000000000000340100007E
:1001100000000000000000000100000000000000DE
:1001200000000000000000000000000001000000CE
:0C013000000000000800000000000000BB
:10013C003400000000000000000000006801000016
:10014C0000000000000000000100000000000000A2
:10015C00010000000000000000000000080000008A
:04016C00000000008F
:1001700030000000000000000000000098010000B6
:10018000040000000000000001000000FFFFFFFF6E
:10019000FF00000001000000080000000000000057
:1001A0002C0000000000000000000000C40100005E
:1001B000040000000000000001000000FFFFFFFF3E
:0C01C000FFFFFFFF08000000000000002F
:1001CC0034050000E401000099A1011095A701106D
:1001DC00A5C2011009B2011045B8011000000000C1
:0801EC00000000002F000000DC
:1001F40028000000000000000000000014020000BD
:100204000000000000000000FFFFFFFF00000000EE
:080214000800000000000000DA
:10021C00300500003002000069C201106DC10110F0
:10022C001FC2011095BA0110000000000000000070
:04023C002D00000091
:10024000300500005402000075C20110A9B601106B
:100250009DBF011049B60110000000000000000021
:040260002E0000006C
:1002640024000000000000000000000080020000E4
:100274000000000000000000000000000800000072
:040284000000000076
:10028800240000000000000000000000A40200009C
:10029800000000000000000000000000080000004E
:0402A8000000000052
:1002AC00240000000000000000000000C802000054
:1002BC000000000001000000000000000800000029
:0402CC00000000002E
:1002D00000000000200300200400000000000000D7
:1002E000000000002000000070010000300000004D
:1002F0001C02000040030020040000000000000079
:10030000000000000C000000300400001800000095
:10031000400200004803002004000000000000002C
:100320000000000024000000480400001800000045
:10033000000000008803002004000000000000000E
:100340000000000010000000A00100002C000000D0
:10035000CC01000090030020040000000000000019
:1003600000000000200000006402000024000000E3
:10037000FFFFFFFFB00300200400000000000000AA
:100380000000000028000000880200002400000097
:10039000FFFFFFFFD8030020040000000000000062
:1003A00000000000580000003C0100003400000084
:1003B000FFFFFFFFE003002004000000000000003A
:1003C00000000000100000006004000018000000A1
:1003D000FFFFFFFFE8030020040000000000000012
:1003E000000000001C000000AC020000240000001F
:1003F000FFFFFFFFF00300200400000000000000EA
:100400000000000038000000F40100002800000097
:10041000FFFFFFFF58040020040000000000000060
:100420000000000054000000000100003C0000003B
:100430001800000000000000000000004004000060
:080440000800000000000000AC
:100448001800000000000000000000005804000030
:08045800080000000000000094
:100460001800000000000000000000007004000000
:0804700008000000000000007C
:0804780001000000B862000061
:01048000007B
:040484000100000073
:0404880000000E0062
:04048C0000000F005D
:040490003200000036
:040494000100000063
:040498002803002015
:04049C00000200005A
:0404A0000000000058
:0404A40001CA011078
:0404A8000000000050
:0404AC00000000004C
:0404B0000800000040
:0404B4000000230021
:0404B80050030020CD
:0404BC00010000003B
:0404C000980300207D
:0404C400080000002C
:0404C8000000000030
:0404CC00000000002C
:0404D0000000000028
:0404D4000000000024
:0404D8000000000020
:0404DC00010000001B
:0404E000F8030020FD
:0404E400060000000E
:0404E800010000000F
:0404EC006004002088
:0404F0000000000008
:0404F4000000000004
:0404F80000020000FE
:0404FC0000000000FC
:020502002900CE
:020504000100F4
:020506002500CE
:020508002D00C4
:02050A002E00C1
:02050C002F00BE
:02050E000100EA
:0105100001E9
:0805140004000000A4620000D5
:08051C000000000000000000D7
:0405240000000100D2
:0405280000000300CC
:04052C0087C401106F
:04053000380500008A
:040534003805000086
:0405380000000000BF
:04053C00900000002B
:040540009000000027
:0405440000000000B3
:0405480098030020F4
:04054C00455B00000B
:040550002000000087
:0405540090620000B1
:04055800B860000087
:04055C000DC30110BA
:04056000E919000095
:04056400EB1900008F
:0405680099C801101D
:04056C009BC8011017
:040570000000000087
:0405740080040000FF
:04057800F85F000028
:04057C00106000000B
:04058000E05F000038
:0205840008006D
:0205860009006A
:02058800010070
:02058A0000006F
:01058C00016D
:040590000000000067
:040594000000000063
:04059800000000005F
:04059C00000000005B
:0405A0003519000009
:0405A40055190000E5
:0405A80059180000DE
:0405AC007F190000B3
:0405B000A11800008E
:0405B40077180000B4
:0405B800D318000054
:0405BC00AB19000077
:0405C000BD5A000020
:0405C400095C0000CE
:0405C8000D5C0000C6
:0405CC000800000023
:0405D0002400000003
:0405D400180000000B
:0405D80028000000F7
:0405DC0020000000FB
:0405E0003C000000DB
:0405E4000C00000007
:0405E80034000000DB
:1005EC00DFF800F049C10110DFF800F019C201106A
:1005FC00DFF800F041AC0110DFF800F0CDA00110E5
:10060C00DFF800F085C10110DFF800F0C1C2011065
:10061C00DFF800F0E3BF0110DFF800F0C1C10110FA
:10062C00DFF800F009B70110DFF800F03DC1011050
:10063C00DFF800F029AF0110DFF800F0CDC1011098
:10064C00DFF800F085B00110DFF800F0DDB201102A
:10065C00DFF800F079B50110DFF800F0D5C001101B
:10066C00DFF800F0E1B5011020B1082328220021A9
:10067C00FFF7E2BF704720B1082330220021FFF7BB
:10068C00D3BF704738B500F06FFE25680DB12968EF
:10069C002160FFF7A9FF284632BD70B504460D4610
:1006AC002668002028601EB9FFF79AFF25600DE030
:1006BC00FFF796FF00E0366831680029FBD1AE42A7
:1006CC0003D1FFF791FF002070BD3560FFF78CFF61
:1006DC00012070BD0022DFF8801C01EB4211CB7FA2
:1006EC001B0605D5B1F91C30834201D10846704771
:1006FC00521C082AEFDB00207047F8B500F034FEDE
:10070C000546DFF81C0AC17D0A001CD0491EC175C4
:10071C00C9B2C1B9DFF80C7A082107F14C0001F01D
:10072C0052F884B1B86B703001F025F8B86BDFF873
:10073C002C1CC0680968201A07F1EC0600F0B4FD07
:10074C003046FFF765FF2846BDE8F240FFF74CBF87
:10075C0010B50446207B00F00F00022802BFDFF822
:10076C00C009007D002817D100F0B4FCA1688908ED
:10077C00A1EB90006FF0704188420DDAB0F1704F30
:10078C00BCBFDFF8041B0818DFF89819896BC9681F
:10079C0001F57A71814200DB002010BD38B5DFF81D
:1007AC00EC0ADFF8EC2A0168DFF8784902EA010567
:1007BC00E9430160A90606D54068800603D54FF4CD
:1007CC00005100F090FB15F4602F0BD0A06905F4DC
:1007DC0060210843A061002104F19C00BDE8344075
:1007EC0000F0F1BF31BD70B5FFF7FAFEDFF8344908
:1007FC000646A06910F4602F27D0A069C5012D0E04
:10080C00E80748BF002506D4A80748BF012502D435
:10081C00680748BF0225681D40B200F0E2FEA069DF
:10082C00012105F1110291408843A0613046FFF788
:10083C00DBFE04EB85008668300009D0606800227E
:10084C004FF00063691DB04702E03046FFF7CCFE65
:10085C00A06920B1002104F19C0000F0B4FFE07FFE
:10086C0080070DD56569280006D0606800224FF01E
:10087C0000436FF00101A847E07F00F0FD00E07736
:10088C0070BD70B5FFF7D4FBDFF89858DFF8D04A8D
:10089C00AB6A024690071DD4D3E90401104007D07F
:1008AC00EB629969084398614FF4804100F0F8FCC1
:1008BC00A86A002849D16E6A002E46D0F068A96B50
:1008CC00884224D005F14C00BDE870404FF48051B3
:1008DC0000F079BF0BB9A86AEAE70020A862D3E957
:1008EC0004019E69024042F0020232439A6162693D
:1008FC0082436261E26822EA0100E060194605F178
:10090C003000FFF7CAFE022100F0CAFCE3E7B06832
:10091C00FFF71EFFA86418B1A86CBDE87040ECE6A8
:10092C00D6E90401626902436261E26841EA0200AD
:10093C00E0600020E061B0682060E0690028FCD035
:10094C0005F12400FFF79EFEAE6270BD0020D4E6D8
:10095C00F8B506461446376E1D4607B1B847A007D2
:10096C0008D4D6E91601204029400022914208BF44
:10097C00904207D0C6E91A4506F13800BDE8F240AE
:10098C00FFF736BEF1BDFEE780B500F00CFFDFF8D7
:10099C0094270146906BD26BBDE80840104710B508
:1009AC00DFF880470FF23D01E06B884202D101F085
:1009BC0023F8206404F14C00BDE81040042100F041
:1009CC0002BF80B5FFF734FBDFF89819084207D057
:1009DC00BDE804404FF00051DFF8A40B00F0F3BE6B
:1009EC0001BD000038B5042951D1DFF83847606AE1
:1009FC00A16B08B1C16803E0E07FC00748BF616824
:100A0C00A1630846DFF8B42A41680B7813601268BA
:100A1C0009788A421CBF8569002D05D000224FF051
:100A2C0000736FF0FF01A847022001F029F9112093
:100A3C0001F03BF9DFF8E8060121C176A16B407E9D
:100A4C00097C014204BF0E2001F02FF9A06BDFF8E6
:100A5C00101940688268002A04BFC068002804D0BE
:100A6C000020C861DFF8C40A086040F2FF70DFF8AC
:100A7C00C02A106000208861DFF8E80848610FF296
:100A8C001100E0631920BDE83240FFF7DDBD31BD38
:100A9C002DE9FF418046880040F19780DFF88456AD
:100AAC00A86B40684068010018BF8047A86BDFF84E
:100ABC00B06840688168002904BFC168002912D061
:100ACC00F1690029FCD00021F1618068010018BF98
:100ADC008047A86B4068C068010018BF8047DFF8EA
:100AEC00A40AFFF7ADFA0020F06108F10807DFF85F
:100AFC00980A30600120FFF7EBFA00220FF21D106C
:100B0C00E86340F60A01DFF8180642800180027B98
:100B1C0002F0F002027300224260427B02F0F0020B
:100B2C0042F00102427300223C68628000E01446ED
:100B3C006268002A1CBF13888B42F8D1606040F6B3
:100B4C000302617B01F0F0016173696A89680988AD
:100B5C0091421CBF40F60402914217D0398BA9B1C7
:100B6C0000217983F96108F12C010A7802F0F00276
:100B7C000A704A7802F0F00242F001024A7008F161
:100B8C0020014160417B01F0F001417369463868F6
:100B9C00FFF77EFA6846FFF78AFA3868FFF786FA9D
:100BAC00F0690028FCD00020F061012001F03CFB32
:100BBC00012808D0607B00F0F00040F00100607369
:100BCC000FF20D00E86338683060BDE8FF8100006B
:100BDC00DFF84C0A014200D17047012010B501F03A
:100BEC0023FB0128DFF83C4508D10FF23100DFF878
:100BFC007017E063DFF82805086010BDDFF8241AD1
:100C0C0009683220EC34B0FBF1F12046FFF7FCFC14
:100C1C002046BDE81040FFF7FBBC00002DE9FE4369
:100C2C0006460D466804DFF8FC4417D5FFF7D8FCE0
:100C3C00E66AB769FFF7D8FCB8070CD45EB1B069A7
:100C4C00B843B061706830B1B6F91C10F0687668C2
:100C5C003A460023B04725F480453DE1A807DFF86C
:100C6C00C0747BD5266B002E70D0B168202001E0BB
:100C7C004968401E79B1C2B26AB10A8840F60303D2
:100C8C009A421CBF40F604039A42F1D1F068182234
:100C9C00203001F08FFBB0690021B1617168E1B1C6
:100CAC0040F00202F07F002300F00700012807D07B
:100CBC00022809D0042804BF00224FF0805306E01C
:100CCC0000224FF0005302E000224FF08043B6F9AF
:100CDC001C10F068D6F804C0E047FFF781FC804692
:100CEC00E08E401CC0F30B00E086206BC17F01F04E
:100CFC007F01C17704F13000FFF7C4FC00F0EDFB7D
:100D0C00B4F93610F06800F19402B2F9003099424F
:100D1C0004BF397D002919D1917809B9016821B92D
:100D2C0000209070FFF7E9FC10E0A26B126812F142
:100D3C00010F0BD0DFF824261268B1FBF2F17030F2
:100D4C00FFF762FCF0687030FFF762FC206B002844
:100D5C0025F0020501D045F00205BDE0A80004F124
:100D6C00800840F6090957D5206CB8B1042001F071
:100D7C005BFA98B100F040FE216C814228BF401E06
:100D8C00401A000B00F58D70F06040F2D761A0F2B4
:100D9C00EE20884224BF40F6C410F060002020648E
:100DAC00D6F818C0BCF1000F0DD0787B0F2108428B
:100DBC0004BF708C484506D100224FF000736FF4CD
:100DCC0080713046E0470022DFF85C18404600F0A6
:100DDC000DFDB87E50B10220ADF800006846FFF75B
:100DEC002FF9BDF80800A0830020B876012084F804
:100DFC002000F87D401CF8750020F876192000F0D2
:100E0C00F8FC77692FB100224FF080630021304647
:100E1C00B84725F000555FE0B87F25F0080620B1F3
:100E2C00280702D50020B87743E0280743D50020D7
:100E3C0084F82000012038770020FFF749F90FF2E1
:100E4C00B100DFF8E817DFF8D056E0630022404627
:100E5C0000F0CCFCB97E787E81F00101084202D111
:100E6C00012078760FE0A06CF8B100F0C5FD216C84
:100E7C00626C401A02EB10306064A16CB0EBC11FC5
:100E8C0013D300206064A7F80090787B00F0F0008A
:100E9C0040F00100787300207880387B00F0F0007F
:100EAC003873002078602F6003E04FF0005100F0A1
:100EBC001AF8354610E0A8040ED5A66A002E1CBF01
:100ECC007068002806D0B6F91C10F068766800220D
:100EDC002023B04725F4005515B1294600F003F83E
:100EEC00BDE8F783022104F14C0000F06CBC00005B
:100EFC0070B50646880028D5FFF7AFF8894CDFF8A7
:100F0C003007874DE063687D18B906F13800FFF7AC
:100F1C006FFBDFF81C1600200860022000F046FE74
:100F2C00112000F057FE307C10B90E2000F052FE5C
:100F3C000020A883287E40B100202876042104F1EB
:100F4C004C00BDE8704000F03EBC70BD30B58DB0BB
:100F5C0000F0ADFDDFF8DC06DFF8DC460168714D12
:100F6C0041F00201016001A8FFF77EFBA078DFF8D9
:100F7C00CC160790002301AA05F14C00FFF760FB8B
:100F8C0001A8FFF778FB0020ADF81C0001AB20781E
:100F9C00DFF89826099019210020009005F18000B7
:100FAC00FFF746FB01A8FFF75FFBE078DFF8901630
:100FBC000790002301AA05F19C00FFF741FB01A853
:100FCC00FFF759FB0120ADF81C0001AB6078DFF88E
:100FDC00742609901A210020009005F1D000FFF72B
:100FEC0027FB00230022DFF8601605F1EC00FFF769
:100FFC002FFBDFF83C06E86301214FF6FF70A88356
:10100C000DB0DFF8480681760021E9774176C1768C
:10101C0081838177296430BD2DE9F041404E04462F
:10102C00707D8EB00F4690461D4618B9FFF78EFFA7
:10103C0001207075002F1CBF6760B8F1000F47D0FE
:10104C00C4F80880FFF7CCFAB17D00293ED101210C
:10105C00B175FFF7C9FA35B909A80FF2206114224E
:10106C0001F0A8F909AD286820606868E060287A6A
:10107C002074E86860612869010018BFA0617821BC
:10108C0004F1200001F0C2F9082324220021684653
:10109C00FFF7C2FA01208DF818006A46002104F10E
:1010AC003800FFF7BDFA0823242200216846FFF719
:1010BC00A7FA06946B460022DFF8941504F1700031
:1010CC00FFF7C6FA20460EB0BDE8F081FFF78CFAA8
:1010DC000020F8E738B5FFF783FA124991F8201091
:1010EC0031B1DFF874150C68FFF77EFA204632BD7B
:1010FC00FFF77AFA00F080FC10F50030DFF85C2581
:10110C0041F10001A2FB0045054802FB01550169B4
:10111C000020221845EB0103184632BD00000000E8
:10112C00181C0020081B00202DE9F84F80460C46A7
:10113C0092469B46FFF754FADFF818558146B5F9ED
:10114C003400B5F93610401AC0F30B0008286FF0C4
:10115C00010648DAA88E401CC0F30B00A886B5F92E
:10116C003400ADF8000000207B4901EB4017F97FFB
:10117C00090604D5401CC0B20828F5DB002708F18D
:10118C00700000F0F8FABC6087F81EA0C7F804B035
:10119C002021BDF80000B883C7F80C80DDE90A23D4
:1011AC00DFF8BC0410401940C7E9040108F19404AD
:1011BC000020F87740F6FF78686A0028394605F178
:1011CC00240008D0FFF769FA40B1BDF8000000F028
:1011DC0061F848464BE0FFF760FA48B9A88E4044E6
:1011EC00C0F30B00A8864846FFF7FEF9304649E0ED
:1011FC00BDF80000DFF8546400F04CF80020A0703B
:10120C0095F82010707F084207D00120B07700209D
:10121C007077B076F07D401CF0754846FFF7E4F926
:10122C00A86A68BB95F8200018B1192000F0E1FA03
:10123C0026E0F07E20BBFFF7D3F90446307F10B1D7
:10124C000120307612E0B868FFF782FAA86488B102
:10125C00A86CA96BC968401ADFF8C813096805F1B6
:10126C00EC0600F021F83046FFF7D2F92046FFF7E4
:10127C00BBF905E02046FFF7B7F9042100F010F8A0
:10128C00BDF90000BDE8F28FF6FFFF1F0810044007
:10129C0020000E002080F87F40F08000F877704727
:1012AC0005F14C0000F08FBAB0FBF1F13046FFF7BE
:1012BC00ABB92DE9F04106460F4614461D46FFF723
:1012CC00CBF980463846FFF705FA070003D14046B4
:1012DC00FFF7C6F90AE0F87F0721084209D040461B
:1012EC00FFF7BEF90721F87F0842FCD1022000214C
:1012FC0014E07968DFF86C03814202D079683166BA
:10130C007860C6E916454046FFF7AAF94FF0FF3161
:10131C0006F13800FFF770F9D6E91A01BDE8F08143
:10132C00DCB5DDE906670446CDE90067180008BFA7
:10133C00DFF830332046FFF7F7FE002803D50020F6
:10134C004FF00041DCBD0146204602B0BDE8D04064
:10135C0002224FF0E043ACE7F8050020E800000063
:10136C0000100440020000400446FFF739B901E0C8
:10137C0042F002022DE9F843DFF8D842606A00908F
:10138C00894603271546FFF72BF919F1010F05F0D4
:10139C00010680460AD1A06A002819BFA06AB0F9DC
:1013AC001C90E08E00F101090020E0770FFA89F023
:1013BC00FFF790F901007CD0A06A814205F002058C
:1013CC0025D1280003D0606A0090002060620122C1
:1013DC00C87FB2401043C877FFF73EF90746002E8E
:1013EC0014BFDFF88402DFF88402FEF729FE00F058
:1013FC0074F825B906E000F063F800F069F800987D
:10140C000028F8D13846FFF72BF9832753E0009AD0
:10141C008A4204F1EC0016D100F0ADF9280012BF9D
:10142C000020606A0068606200F057F8009800F0D5
:10143C0047F800F04DF8009818B32800F6D120E0DA
:10144C00009A12680092009AEAB112688A42F7D1A7
:10145C0000F091F9009800681DB1009A002111600C
:10146C0004E00168009A116000210160009003E023
:10147C0000F026F800F02CF800980028F8D100F0C5
:10148C002CF8832701E000F028F8DFF8C001C17EBA
:10149C0011B1FFF727FD0EE0007F60B9DFF8D00136
:1014AC00E063FFF71FFD94F8200020B96048E0636B
:1014BC0001E000F012F83846BDE8F283D021084074
:1014CC00C07F009940F00400C8776846FFF7DAB88F
:1014DC00014604F13000FFF7E0B84046FFF784B84E
:1014EC0038B5FFF741FF05465A4890F8200068B11F
:1014FC002046FEF7A5FD044600F048F804F0FF0076
:10150C00012801D1812032BD022032BD00F03EF80D
:10151C00012032BD00000000001004400A464D4975
:10152C00896B884201D0032070470AE051000706FE
:10153C00000004600A464749896B884201D00320A9
:10154C00704700211046CBE770B542498A6B904238
:10155C006FF07F0412D191F8200078B1FFF740F8BA
:10156C0005464448FEF76CFD064600F00FF806F001
:10157C00FF00012802D13002001670BD204670BD5C
:10158C00541B00200100070601010E042846FFF73A
:10159C002BB870B50E461546FFF722F883242D495B
:1015AC001EB1022E0DD004D30FE08A6A3AB1896ABB
:1015BC0002E0264A927E12B9898B298006E08024AB
:1015CC0004E091F82010297000E00324FFF70CF8D8
:1015DC00204670BD80B50846FFF77CF800B18068E6
:1015EC0002BD38B5FFF7C0FE1A49CA7F520702D5B3
:1015FC008B7F9C4210D001228B8B02FA04F52B437B
:10160C008B830C341C490B68A24023EA02020A604B
:10161C00096809B90D4A1175BDE83240FEF7E4BFFF
:10162C0004000020E80000008F080000CF09000033
:10163C00F109000000200940C85F00009509000076
:10164C00F3070000A9070000AB090000181C0020DC
:10165C0059090000081B00200430044000093D001B
:10166C00F1EFFF9F5D09000001000204010001047D
:10167C00290C0000010003040C100440FFFFFFFFC5
:10168C00C4090000010000000000000093090000E4
:10169C00DFF800F021B30110DFF800F095C0011065
:1016AC00DFF800F00DA80110DFF800F0BDBE01104E
:1016BC00FEE7DFF8FC00007D70476BE038B5FFF704
:1016CC00FCFFDFF8F4500446A8680021FFF7E4FFA4
:1016DC006969081AA969814238BF002084F311880E
:1016EC0032BD2DE9F041FFF7E8FFDFF8CC5004469E
:1016FC00A8680121FFF7D0FF0121A9830021E9830C
:10170C006E6929682A68871B801A711A884204D26C
:10171C000020A88384F311882BE084F31188002423
:10172C0006E0A61931460120FFF7BAFF3F1B04461D
:10173C00A742F6D2FFF7C1FF8046E88B012804D1FF
:10174C0031460020FFF7ACFF0446A96914F1010FE4
:10175C0008BF084603D0E01B814238BF08468119F8
:10176C00FFF7A2FF012028840020A8832E6088F3B5
:10177C001188BDE8F08100218182DFF83810C06843
:10178C004969884204D1DFF858000068FEF740BF71
:10179C0070477047DFF84C100968EFF3118081F344
:1017AC0011887047F6E7DFF840008068704700004A
:1017BC00A40100207801002078010020616280F3F0
:1017CC0011882046704738B504460D46FFF7EAFFEE
:1017DC00616A2943FFF7F2FFBDE83240FFF758BFBB
:1017EC00B4620000E4000000C80100208160426087
:1017FC007047102804D3DFF80C101038C1F8000F14
:10180C007047000000E000E000F004BEFFF7C2BF2C
:10181C00DFF89811C20744BF01220A60820744BF57
:10182C004FF480720A60400744BF4FF48030086068
:10183C007047DFF87C21C30748BF1160830748BF9E
:10184C005160400748BF91607047000010B50446D6
:10185C000020D4E90A2347F6906101F0D5F8012362
:10186C00994228BF4FF0FF3010BD10B50C4600F068
:10187C00B9F8011D201AB0F1004F05D8081BB0F1C2
:10188C00004F38BF8C4200D20C462146BDE81040B8
:10189C000120CEE72DE9F04180460A46D8E90A013D
:1018AC00D8E90C45A0FB026701FB0277A6196F4132
:1018BC00340C002244EA07414046FFF7D6FFC8E942
:1018CC000E67BDE8F081F8B50646FFF79FFF0446AA
:1018DC00DFF8E050DFF8E0700120E861FFF798FFD7
:1018EC00F96A096A142088473069B0F5802F34BF33
:1018FC000421010C0120FFF79CFF3A681268232198
:10190C0000209047DFF8B41001200860DFF8B40025
:10191C00016821F4E02141F480310160012028604C
:10192C0084F31188F1BD000000F066B810B5DFF843
:10193C009000446800F006F86069A169BDE81040A9
:10194C0008470000012063E7F8B504460D4600F097
:10195C0053F8D4E90A6732463B4601F055F83DB1DD
:10196C00A6FB002306FB013307FB0033C4E90C2361
:10197C00F2BD10B5DFF83C00DFF84C4000210160EF
:10198C000121C16121602068FFF7DCFFDFF84810FE
:10199C000968096A14208847206810BD000080B5CA
:1019AC0000F02AF8000C40EA014002BD0420094076
:1019BC0018200940000024438401001080022443B5
:1019CC00E4010020002009402C200940DFF8100021
:1019DC00C088704700000000B0010010FEE770479F
:1019EC00F001002009480168426803689942FAD165
:1019FC00100C40EA0140704710B5044A1368506857
:101A0C001468A3421946F9D110BD00000820094002
:101A1C00DFF800F0F5C00110DFF800F049BA011052
:101A2C0020B1082324220021FEF7EABD704780B5BF
:101A3C000120009009234FF400720021DFF8080701
:101A4C0001F09FF801BD80B5002301223421DFF89D
:101A5C00F80601F0A9F800B10120C0B202BDDFF810
:101A6C00EC0680687047DFF8E416401890F8ED003B
:101A7C0070470022022904D1012806D140F2EE223F
:101A8C0003E0012808BF4FF47A7210467047DFF864
:101A9C00BC06D0F8DC007047DFF8B00690F8E61012
:101AAC0021B1D0F80C01010018BF004770472DE997
:101ABC00F041DFF8988608F1E1058AB0A879002892
:101ACC0061D10120A871DFF88866DFF88876307B59
:101ADC0068717068C8F80C0101A8FFF7A1FF00201D
:101AEC000690ADF81400079001AB00220FF2F541FF
:101AFC0008F10C00FEF7ACFD01AB00220FF2A15176
:101B0C0008F13000FEF7A4FD01AB00220FF2D94121
:101B1C0008F15400FEF79CFDB16801208847DFF8FE
:101B2C00380600787868C0F38154707B20B1032CA0
:101B3C0002D10120287003E0032C18BF022C16D10F
:101B4C00022000F09DF8032CDFF810160CBF4FF4A8
:101B5C007A7042F210700968B0FBF1F108F1540090
:101B6C00FEF752FD08F15400FEF752FD05E0012C82
:101B7C0003D100F063FAFFF75AFF386840075CBFE7
:101B8C00002000F07DF80AB0BDE8F08110B508B176
:101B9C00140001D1022010BD8160C26003610146B6
:101BAC00DFF8A80501F01AF8002010BD10B50446A6
:101BBC00FEF716FDDFF89415621892F8E8305B1EFC
:101BCC0082F8E830DBB223B98A680123A3409A4338
:101BDC008A6066E02DE9F0410546FEF701FD80467E
:101BEC00DFF86815681890F8ED20521E80F8ED208B
:101BFC00D2B2002A3FD10FF2A050DFF8644500EBBF
:101C0C0085052E786F88300615D52168096A384607
:101C1C0088472168896A384688472168096B3846A5
:101C2C008847DFF8401501200860DFF83C050068A4
:101C3C008007FAD512E0700606D501EB870100206B
:101C4C00D1F80011884709E021688969384688472E
:101C5C002168496B384688470228F9D106F03F00C5
:101C6C003F2818BFFFF7B6FF687800F03F003F2809
:101C7C0018BFFFF7AFFF4046BDE8F041FEF7B4BC1C
:101C8C0010B50446FEF7ACFCDFF8C0148A680123DB
:101C9C00A3401A438A60611891F8E820521C81F81D
:101CAC00E820BDE81040FEF79FBCF8B50646FEF7ED
:101CBC0097FC0446DFF89454701990F8ED104A1C08
:101CCC00002980F8ED2039D10FF2CC4000EB8607CB
:101CDC00387800F03F003F2818BFFFF7E6FF787810
:101CEC0000F03F003F2818BFFFF7DFFF7E883878F1
:101CFC00DFF86C7401060ED53968C969304688471F
:101D0C003968496A304688473968C96A3046884715
:101D1C0000F019F812E0400606D505EB860101200B
:101D2C00D1F80011884709E039684969304688477D
:101D3C003968496B304688470128F9D12046BDE8FF
:101D4C00F240FEF751BCDFF81C1401200860DFF8EC
:101D5C00180400688007FAD570472DE9F04F00246D
:101D6C0083B04FF0000A0128D04618BF012664D179
:101D7C00DFF8D893D9F8DC0001285DD10220C9F82E
:101D8C00DC00FFF745FE0090012000F062F9060030
:101D9C0054D1FEF761FCDFF8D81301900C600120E0
:101DAC0000F042FA012804D1002000F0A7F94FF00E
:101DBC00010ADFF8C013DFF8B4030C6000681120CF
:101DCC00FFF751FE08B14FF001081020FFF74BFE52
:101DDC0008B148F002080F20FFF745FE08B148F0A3
:101DEC0004080B20FFF73FFEDFF8746320B1316865
:101DFC00096B4FF4806088470A20FFF734FE20B14E
:101E0C003168096B4FF481608847DFF85813DFF8AD
:101E1C006873DFF868B30120086048F0200031686F
:101E2C0089698847DFF858130120086099F8080081
:101E3C00C00707D5012416E0042673E00120C9F879
:101E4C00DC006CE0584600F0EBFE0546042DF9D0A2
:101E5C00012D04D1326A52680321584690473868E4
:101E6C00800880003860002000F0E2FEBF48006867
:101E7C003068806B804754B9012D04D1326A5268A6
:101E8C00012158469047386840F003003860012023
:101E9C00B849086040463168496988470B20FFF70C
:101EAC00E2FD20B13168C96A4FF4806088470A208E
:101EBC00FFF7D9FD20B13168C96A4FF481608847BA
:101ECC00A849012008600020AD4908600320C9F82A
:101EDC00DC003168496B404688470128F9D1042061
:101EEC0000F0B7F8A24901200860A0480068A54896
:101EFC0000688006FBD5BAF1000F1CBF012000F072
:101F0C00FDF800F0E1FF082000F0A3F806460120E0
:101F1C00C9F8DC000198FEF7A3FB00F059FF00980C
:101F2C00FFF77AFD3046BDE8FE8F38B50446FEF764
:101F3C0057FB05462146854800F064FE28464BE0D9
:101F4C0030B5002401288BB004D021D303281DD038
:101F5C0018D31DE001A8FFF763FD7C4D8A49069458
:101F6C00ADF81440079401AB012205F17800FEF79F
:101F7C006FFB00940023854A2C2105F19C00FEF791
:101F8C0057FB05E000F0BCFF044601E001F05EF8F1
:101F9C0020460BB030BD00F054B938B5FEF720FB2D
:101FAC0005466A4890F8E000012410B1FFF74BFD9C
:101FBC0004462846FEF718FB204632BD38B5FEF71E
:101FCC000FFB624D044695F8E00020B100F080F95B
:101FDC00002085F8E0002046BDE83240FEF704BB47
:101FEC00000000007047000010B582B0042000F023
:101FFC001BF9022818BF032807D100F01FF8FFF7C0
:10200C0016FDBDE816400220D0E561485349006832
:10201C004E4CC0F3815003280CBF4FF47A7041F240
:10202C0088300968B0FBF1F104F15400FEF7ECFACA
:10203C0004F15400BDE81640FEF7EABA0320009004
:10204C001C234FF0405200213F4800F09ABD002065
:10205C00704770B504463D4E304600F0B5FD002586
:10206C0098B9304600F0B6FD0646B068204207D05D
:10207C003269F3680021204698470546012D05D0AA
:10208C00304600F0A9FD0600EFD1284670BD41494D
:10209C0001280CBF40F2FF70002008600020704740
:1020AC0070B5FEF79DFA294E294D044696F8E000CE
:1020BC0028B100F00DF968B1002086F8E00002208C
:1020CC00AD68A84706461020FFF7C3FF8EB103206A
:1020DC00A8470EE0214909683220B0FBF1F101B9A3
:1020EC00012106F13000FEF78FFA06F13000FEF701
:1020FC008FFA2046BDE87040FEF776BA38B5012855
:10210C001ED100F091F801281CD000F0D7F80F4C2C
:10211C001249012084F8E00032200968B0FBF1F587
:10212C0005B9012504F13000FFF725FB294604F120
:10213C003000FEF769FA04F13000FEF769FA01E0AD
:10214C0000F0E8F8002032BD00A00C40E0040020B4
:10215C00885F0000B03F00502D1D0020E8000000FB
:10216C00B801001028200860282008402C200940C5
:10217C000C40094000022243242208400040034046
:10218C00800104431410094095310000652F0000B4
:10219C00B43F0050000004608F3F00008F3F0100EF
:1021AC008F3F02008F3F0300903F00018F3F0101E2
:1021BC00903F0002903F00038F3F01048F3F0005CA
:1021CC008F1208048F3F00048F3F0006513F000020
:1021DC007F3F01003F3F04003F3F02003F3F0100B3
:1021EC007F3F020070B50446E00782B00D46624E98
:1021FC0005D5A8B200900023012200F011F8A00729
:10220C0005D5A8B200900123022200F009F860075E
:10221C0005D5ADB2009502230C2200F001F873BD78
:10222C000021304600F0ADBC0146042907BF1D2338
:10223C004FF0C0421C234FF080524F48342100F025
:10224C00B3BC38B50546FFF7CDFB4C4CA168401A22
:10225C004FF47A71484305EB104501F06BF8216996
:10226C00401A48BF404240F6B9318D4207D2062889
:10227C0005DAA068E168814201D322685AB9404965
:10228C004A68D2074FF4FA6017D4086800F0FF00D0
:10229C007D21484308E0081A3A494843000C00EBFA
:1022AC009000904238BF1046C82801D2C82032BDD9
:1022BC00B0F57A6F88BF4FF47A6032BD80B50121DA
:1022CC000320FFF78FFFFFF78DFB2C49886001BDC2
:1022DC0080B50120FFF7A8FF012819D000230122A7
:1022EC003421254800F060FC98B100F026F8FFF787
:1022FC0079FB22498B680A68C860A2EB9202C01A6B
:10230C00204B5843000C0860904238BF10460860C0
:10231C00012002BD10B500210320FFF763FF01204F
:10232C00FFF782FF08B100F008F8144CFFF75AFBD6
:10233C00606000F0FFFF206110BD1348006801F0E1
:10234C000DB810B511490A6811490968140424160E
:10235C001B384443E41004EB2244120600FB00F348
:10236C00121609065A435843091604EBA222484395
:10237C0002EBA04010BD000000A00C40081D002086
:10238C00AC3F005040420F008000001090130050F2
:10239C00A410005062B38B0708D0521E11F8013BF9
:1023AC0000F8013B00F024808B07F6D1830740F046
:1023BC00208000BF103A07D330B4B1E83810103A7F
:1023CC00A0E83810F9D230BC530724BFB1E808108C
:1023DC00A0E8081044BF51F8043B40F8043BD20776
:1023EC0024BF31F8022B20F8022B44BF0B7803706A
:1023FC007047083A07D3B1E80810083A40F8043B94
:10240C0040F804CBF7D25307E4E70000002200F0B9
:10241C00C1BF000010B5DFF82405046814F1010FEA
:10242C0008BF002401F038F8DFF81415002008600C
:10243C000120DFF810150860DFF80C15086000F0BB
:10244C004CFADFF80805006828B1DFF804050068CD
:10245C00204600F022F8DFF8FC14DFF8FC24002002
:10246C000860DFF8F80401686FF31B411143016049
:10247C00DFF8EC040168C1F30131012907D10168CF
:10248C00DFF8E024114041F4003202600160DFF813
:10249C00D80400680028FAD110BD70B50546DFF8E5
:1024AC00CC0401210160DFF8C81409680029FAD0B6
:1024BC00DFF8C044DFF8C024C02121605368DFF886
:1024CC00BC149B075DBF13681B0C43F0F003722315
:1024DC000B70002101639668304600F031F83146EC
:1024EC00284600F061F8DFF89804816D89B240F25B
:1024FC000F22914214D201680068C1F30361C0F34A
:10250C00034001B1491E072805D006280EBF07203D
:10251C00801C00F00F0041EA0010DFF8681408700E
:10252C00304600F0B2F8DFF860140968C968022080
:10253C008847402020600120DFF85014086070BDEF
:10254C0010B50446DFF848040068C0F3046000F0DE
:10255C00C0F92117491C08181628A8BF152004DA41
:10256C006FF009018842B8BF084600F01F00DFF881
:10257C00241440F4F8500880DFF81C04006880072D
:10258C004FBF44F040640020DFF810140860DFF8FF
:10259C001004C4F3C06181F001010160C4F38061D7
:1025AC0081F00101816010BD70B5054682B008460E
:1025BC0000F0F0F80246DFF8EC43182100F062F866
:1025CC0000F014F980B20090002340F2FF322C216D
:1025DC00204600F0D6FADFF8D063F068C0F30D02A5
:1025EC001C2100F04FF8706800F0FC32142100F050
:1025FC0049F83068DFF8B413DFF8B46301EA00027D
:10260C00102100F03FF8284600F0FAF802460C21A1
:10261C0000F038F8284600F01EF9400040F0200089
:10262C003072284600F020F940F010003072284635
:10263C0000F023F90246282100F024F8284600F087
:10264C0001F9400040F06000F072284600F02FF9CC
:10265C00C00040F080003070284600F031F9800056
:10266C00DFF8501340F47C400880284600F012F943
:10267C000246082100F006F8DFF83C134FF4800006
:10268C00086073BD204600F077BAF8B5810C01F0F4
:10269C0003010129C94CC84D02D002292AD026E0D9
:1026AC00216A8A0323D44FF480422A606FF08F068C
:1026BC00C34AD2F8023033404E0A06F08006334348
:1026CC00C1F303363343C2F80230C1F30326D2F808
:1026DC0001301B0946EA0313C2F801306FF0E7061C
:1026EC001368334001F0E7011943116002E04FF029
:1026FC0000412960B34EB44AB16809075CBF402160
:10270C00A9624FF400712964800D216AC90C01F093
:10271C00030141F0300110F00300117003D00228C6
:10272C0026D008D326E001210420FFF75BFDA74843
:10273C0000F0F4F822E00120FFF776FD0746394659
:10274C000420FFF74FFD0420FFF76EFDB842FAD1CD
:10275C00366826F07F4000F0E1F89D4B1B681B6843
:10276C004FF060220721300E98474FF480602860AC
:10277C00032100E002210420FFF734FD2068954975
:10278C0000F03F00087047F6180093490880934802
:10279C000068F1BD92490968C1F383628303C1F3F8
:1027AC008F2120D4000400164FF6FF7307E0490870
:1027BC0004D11946520804BF01220121401C0028F3
:1027CC00F5D401280FDB490041F00101B1F5803F40
:1027DC0021BF0121520042F00102102A24BF0F2216
:1027EC001946401EEDE741EA024070477C480168FB
:1027FC0000680002C1F3870100F440700843704781
:10280C0030B55D4C77490A686568ED07C2F3035132
:10281C00C2F303430AD42468250501EB2571240473
:10282C0081F3040103EB247383F304031B0443EAD5
:10283C00015193B21943222824BF02F08040014376
:10284C00084630BD0021202803D367480068C0F338
:10285C000151084670470121222803D363480068C0
:10286C00C0F30071084670470121222803D35F484A
:10287C000068C0F34071084670470021202807D338
:10288C0059480068C10C01F44071C0F384500143F5
:10289C00084670472028564907D35348554A0068C4
:1028AC00810A02EA003040EA815108467047002153
:1028BC00222803D34D480068C0F3C0610846704716
:1028CC000021222803D349480068C0F3455108462B
:1028DC0070471628A8BF2038704723480068002886
:1028EC00FBD14548454A416812688908890041F086
:1028FC00005141F00401520748BF41F001010BD4D3
:10290C00026812F0030F07D041F003024260026824
:10291C0002F00302032AFAD141607047384982B2AF
:10292C000A60C0F3074048600120886035480068A1
:10293C000028FBD000208860704700001C1300505A
:10294C00840460425C600C400822044380012843EC
:10295C00000120438C21084000003901482003402D
:10296C0004000940FFFFFCFC0C00684210100940F9
:10297C009402224300600C40AC3F00505662084069
:10298C00BC12005002600840A00100109404604288
:10299C00B81200506E6208400000094094042A43AB
:1029AC000000204300A00C4070130050FFFFFC00FF
:1029BC0041A10C40DCA10C4040A00C406C13005019
:1029CC000A600840A83F005008A10C40BD378600A3
:1029DC00B40100100BB00C4070B00C402C2009401E
:1029EC005013005078130050981300508C13005063
:1029FC0000803F4000F03F0000400340B03F0050DB
:102A0C003C600C4084088C431B4213D1094236D1E4
:102A1C002AB18446B0FBF2F002FB10C2704700F002
:102A2C0045BDFCD30022002370470B00020000219F
:102A3C0000207047904271EB030CF6D370B5B1FADD
:102A4C0081F4B3FA83F52C1BA340C4F1200532FAB0
:102A5C0005F63343A2405FF00046E64002E05B0817
:102A6C005FEA3202841A71EB030524BF2046294623
:102A7C007641F4D302000B003000002170BD012A16
:102A8C00CFD970B5140C20D0B1FA81F4B2FA82F51A
:102A9C00C4F120046419B4F12006D6D3B2405FF01F
:102AAC000044F440002502E052085FEA3303C61AE2
:102ABC0071EB020E24BF3046714664416D41F3D375
:102ACC0002000B002000290070BD0C46B1FBF2F196
:102ADC0002FB11452D0445EA1045B5FBF2F402FB4F
:102AEC00145580B240EA0545B5FBF2F002FB1052DA
:102AFC0040EA044070BD000070B504460D46164611
:102B0C0000F0DEF9401E8041C00F1A490A68002A05
:102B1C00FCD0012E02D0022E02D003E0257002E080
:102B2C00258000E0256001220A6000281CBFBDE85A
:102B3C00704000F0C9B970BD38B504460D4600F0C0
:102B4C00BFF9401E8041C00F0A490A68002AFCD018
:102B5C00012D02D0022D02D003E0247802E024885B
:102B6C0000E0246801220A6008B100F0ADF92046AB
:102B7C0032BD000000800C400B4611460422181890
:102B8C00BAE710B500EB4100102B144600F50070AD
:102B9C0002D3103B001D240C0299994041EA0441D8
:102BAC00BDE810400422A7E738B51D460818102DC3
:102BBC00144602D3103D801C240C0221FFF7BCFFED
:102BCC00204080B2E84032BD006800280CBF0120D4
:102BDC0000207047006870470068704738B504469D
:102BEC000D4600F064FC0021296061686960616831
:102BFC00002914BF0D6025606560FFE7BDE8324019
:102C0C0000F057BC0B684A68002B0CBF42605A603E
:102C1C004A680968002A0CBF016011607047000007
:102C2C00006801074CBF042000F00300704700004F
:102C3C002DE9F84F06469348934C0068934D800756
:102C4C0004D50820A87192482060BFE000F072FB08
:102C5C0080469048006800900027001700F1010999
:102C6C000098800208D4C8F13E00C0100928A8BF03
:102C7C0008208145B8BF814687480068C0F30460CE
:102C8C00FFF727FE824685480068C0F30440FFF733
:102C9C0020FE09EB0A011629A8BF152104DA6FF0F2
:102CAC0009029142B8BF114601F01F027C4B42F45D
:102CBC00F8521A807B4A126812F0030F18BF0127D2
:102CCC00520748BF47F002070EB147F0040795F9C9
:102CDC000720A8EB0202052A02DAAA7997425DD0F6
:102CEC00A8F10F0C0026BCF1000FB64607F001024C
:102CFC0007F00403DFF8B09123D40CEB0C1C4FEA63
:102D0C002C2EBEF1080F28BF4FF0070E7646072E6B
:102D1C0028BF062609EB860A59F82660DAF804A0C3
:102D2C00AAEB060A0AF0FF0613B1CAF3072B5E449E
:102D3C005FEA877B44BFCAF3074B5E440AB106EBDC
:102D4C001A6659F82E9009F0FF0A13B1C9F307233C
:102D5C009A44BB0744BFC9F307439A440AB10AEB30
:102D6C00196A401AACEB0E220099AF717243803293
:102D7C000128B8BF0120342301F0FF0158430AEBAE
:102D8C0012224843B0FBF2F0B0F5803F28BF4FF65B
:102D9C00FF7008F30708A88085F80780434800688F
:102DAC00A988286000201F2904D21F21A98004E0D3
:102DBC004908401CB1F5007FFAD20F39090940EAE5
:102DCC00C1003B490843206000206060BDE8F18FE2
:102DDC0010B53848006884B21CB300F0ABFA2B492C
:102DEC0091F90720904205DA6FF07F029042B8BF4C
:102DFC001046C8718888844201D28C8010BD2B4A41
:102E0C0012680B68D21A921C202A28BF1F22231A80
:102E1C005208D3401818B0F5803F28BF4FF6FF700A
:102E2C00888010BD2448026802B9704710B5234B46
:102E3C00996801F04060B0F1406F21D011480468EE
:102E4C00A4071DD45C68A4071AD404681B68C3F3D8
:102E5C0003531C331B0114F0050F06D09A420FD2FA
:102E6C006FF005012140016010BD934208D20A01A8
:102E7C0058BF44F00104490158BF44F004040460F5
:102E8C0010BD000000000940301009401C1D00203E
:102E9C00FDFDA400B43F0050B81200503C1100508E
:102EAC006E620840242208409C1300500820094000
:102EBC0000E7A4803410094028500940AC3F005072
:102ECC00EFF3108072B67047EFF3108062B6704764
:102EDC00DFF800F099C8011010B50C18FFF7F0FFDF
:102EEC00401E8041C00FDFF8F0130A68002AFCD0A6
:102EFC00246801220A6008B1FFF7E6FF204610BDE6
:102F0C0038B5DFF8D843DFF8D8132078897B002553
:102F1C0008430AD0FDF764FBA178002906BF012104
:102F2C00A1700125FDF760FB0DB1002032BD022020
:102F3C00FEF7A6FE0E20FEF7B8FEDFF8A803016828
:102F4C0009B1012032BDDFF8A0234021116001211D
:102F5C00C1610020607032BD70B5DFF88C0382B0A7
:102F6C00002101604821C160DFF8800300F1D80422
:102F7C00A17A002968D00129DFF8742329D11068BF
:102F8C004BF2F5214843050ADFF868030068C0F3EB
:102F9C008140012806D100F0CDF9FFF7D2F9684342
:102FAC0005EB9055607B10B10020607305E0D248B2
:102FBC000068000215EB10204508D0480560290C6C
:102FCC00416001218160C648807B00283AD00520F1
:102FDC0039E0022909D11568284600F0FDF8A5F260
:102FEC00FF5003282ED308202DE003292CD1116883
:102FFC0000F1B805A1F5C0612868E961002848BF57
:10300C004042002948BF49428842A8BF002018DA34
:10301C006868BB4E80B2009008234FF47F42302189
:10302C003046FFF7AEFDA86800F072F90421304677
:10303C00FFF7A7FDA86900F071F93046FFF7A1FD75
:10304C00012020700B202073BDE873402DE9F04166
:10305C00A64CDFF8AC82AB4FAB4EA34804F1E105B4
:10306C0082B0E9784A1E0B2A00F28080DFE802F079
:10307C00062233465B33465B3346636EA3490968CD
:10308C000968202088470F20F860072341F61D505F
:10309C0038614FF4C0720220009000F070F80723E2
:1030AC004FF4C07200214046FFF77EFD01203060D6
:1030BC00022044E00120F861287800281DBF002080
:1030CC00306103200620E870032038600020706017
:1030DC007068800734D4E878032804D1022000F00B
:1030EC004BF8042007E0002000F046F8E8780628AA
:1030FC000CBF07200A20E87001201AE0042903D134
:10310C002021B961012105E00122BA610A290CBF15
:10311C00032102216970002139600821C16001601E
:10312C000120386026E005290CBF06200920E87034
:10313C000020706004E00020306070600C20E870AB
:10314C0004F17800BDE8F641FDF762BA0021016098
:10315C000120644908600E20FEF73CFD0220FEF7BA
:10316C0025FD0120E8700020A87003E0BDE8F341C4
:10317C00FFF7AEBEBDE8F38100900523602200216D
:10318C004046FFF7FEBC000080B558495E4891F8F8
:10319C00E410891E0A291AD8DFE801F0060A0E1974
:1031AC000A0E190A0E19120001688907FCD510E0E5
:1031BC0041688907FCD40CE041688907FCD508E01C
:1031CC0001688907FCD441688907FCD401E0FFF74A
:1031DC007FFEBDE8014039E7F8B50746484C302181
:1031EC002046FFF779FE414E06F1B805C0F30720E3
:1031FC00686004212046FFF76FFEC0F38440A8608E
:10320C0020212046FFF768FEC0F38120A861B7F5A6
:10321C00C060286002D186F8D800F1BD296996F803
:10322C00D8202AB96A68A968EA60E861AA696A6163
:10323C00E86900284CBF6FF00102022200EB40004D
:10324C001018421000EB927001EBA0006968E96065
:10325C00012810DA6A69032A04D1153001281DDA15
:10326C0001201BE00B300128B8BF0120491E48BFCC
:10327C000021E96007E01F2812DB6A692AB91538BA
:10328C001F28A8BF1E20032109E00B381F28A8BF48
:10329C001E20491C4029A8BF3F21E960002169611B
:1032AC0028610823E86880B200904FF47F423021F7
:1032BC0000F03CF80120009011234FF4003200F094
:1032CC0034F8286900F024F800F02FF8686900F051
:1032DC0025F800F02BF8F1BD00800C40C105002052
:1032EC00885F000004800C402C500C40E00400204F
:1032FC0008400C40B43F0050102009403C600C408A
:10330C0000A00C4000400C4034600C40A0010010A8
:10331C0080B2009012234FF4F802704780B20090F4
:10332C000A234FF440622021704704212046FFF706
:10333C0028BC00000748084A81681278006852B21D
:10334C00A0F54070C9035043C913A1EB2010803085
:10335C0000127047285009400C13005070B50446F9
:10336C00FFF7AEFD451EAD41ED0F074E306800284E
:10337C00FCD0A04701203060002D1CBFBDE8704080
:10338C00FFF7A2BD70BD000000800C4062F30F225D
:10339C0062F31F4200B500BF1300964694461039E5
:1033AC0028BFA0E80C50FAD85FEA417C28BF0CC0BB
:1033BC0048BF40F8042BC90728BF20F8022B48BF90
:1033CC0000F8012B00BD000030480068000C00F034
:1033DC000700052828BF4FF0FF3070472C490A68BA
:1033EC00C2F30F324BF69A139A424FF0FF3006D1CC
:1033FC000868000F0B280CBF0420002070474BF608
:10340C00BE118A4201D1012070474BF641318A42EC
:10341C0001D1032070474BF620318A4208BF0220AD
:10342C00704700001A48F8B50068050F1948006885
:10343C0000F0FF06802E28BF0026FFF7CFFF0428E0
:10344C004FF0FF3406F10A071DD8DFE800F0031235
:10345C001A1A1B00012D12D0032D06D0072D06D0F1
:10346C00082D08BF06F116040DE014240BE01524FA
:10347C0009E025B1022D08BF06F1140403E00A246B
:10348C0001E005B93C4660B2F2BD00009412005058
:10349C0018130050A010005080B5FFF79FFF20B903
:1034AC00FFF7C0FF162800DB01BDFEE77047FDF7F4
:1034BC0097B8FDF799B80000DFF800F0D9C10110FA
:1034CC00DFF800F0ADB50110DFF800F019AE011017
:1034DC00DFF800F0E5C10110DFF800F085C2011043
:1034EC00DFF800F081C20110DFF800F055C10110C7
:1034FC00DFF800F043C20110DFF800F079AB0110E7
:10350C00DFF800F0D9B60110DFF800F0EDB30110D0
:10351C0020B108232C22002100F012BD704720B1ED
:10352C0008233C220021FFF7C7BF704780B5FEF788
:10353C006FFAADF80000FDF753F8ADF802000098F3
:10354C0002BD01B5BDF80200FDF74EF8BDF8000054
:10355C00BDE80240FEF760BA38B5DFF8A008DFF826
:10356C00A018DFF8A04880088000091A2161E060EB
:10357C00034602E0002523F8025B0D18AB42F9D399
:10358C008B0800EB8303002223F8042CE822028032
:10359C004FF6FC721140EC39A0F8E810E83060608E
:1035AC00002000F004F8A060E068606031BDF8B560
:1035BC0000240025061D16F003001CBF311D0E1A39
:1035CC00FFF7B4FFDFF83C28B6B21060112EB4BF81
:1035DC00576897683A88130403D582F40042002593
:1035EC001AE02B0014D0238839880B4423809BB21B
:1035FC00B34211D327461A46B7B1921B92B2042A92
:10360C00A7BFBA5346F40041398841F4004109E0A0
:10361C00B242F1DA01253C4617443A88002ADAD145
:10362C00002701E027F8041BFFF78BFF3846F2BD9B
:10363C0010B50446FFF77AFFDFF8C817086034F8B6
:10364C00042CC2F30E0224F8042C221F4B689A425D
:10365C0038BF4A60BDE8104073E738B50446FFF741
:10366C0065FF00210C23DFF8A0274B43D518AA6C6B
:10367C004AB1944204D1FFF764FF05F1480032BD12
:10368C00491C0329EED3FFF75CFF002032BD70B557
:10369C000546FFF74BFF044600200C22DFF86817A5
:1036AC0042438E18B16C49B900203065B5640022D4
:1036BC00FFF706FFF06418B900F04CFC8D4205D101
:1036CC002046FFF73EFF06F1480070BD401C032862
:1036DC00E3D32046FFF735FF002070BD38B5044614
:1036EC00FFF724FF0025DFF820170C226A438A5AC3
:1036FC00130008D0944203D1FFF723FFE8B232BD88
:10370C006D1C062DF1D3FFF71CFFFF2032BD10B549
:10371C0004462088FFF7E2FFFF2800D16BE10C2262
:10372C00DFF8E416504308448168080002D16FF0BA
:10373C00010010BD2046BDE81040084702460FF2BC
:10374C003870104710B500200C21DFF8BC2600247F
:10375C0001FB00F31344401C03289C641C65F7D345
:10376C000020002301FB00F4401C13530628F9D35E
:10377C00082010800FF2E9609060BDE81040EBE685
:10378C0070B590B0FEF744F904466846FFF7C7FEE3
:10379C0005200690002240F2B6300890694649F6A2
:1037AC0085300490DFF864060590DFF86406FFF7B7
:1037BC008BFE050006D0FFF7B9FE06462846FFF73C
:1037CC0066FF08B900F0C6FB3046FFF7BAFE20468C
:1037DC00FEF722F910B070BDF8B500F0E6F8FFF76F
:1037EC0056FF05006FF0020616D0FFF79FFEA28869
:1037FC0000210C27DFF810364F433B441F883FB99C
:10380C001A805D60A2689A60217369682161C4E2C4
:10381C00BA4203D1FFF795FE3046F2BD491C06298A
:10382C00E7D300F097FB00BF38B500F0BEF8FFF708
:10383C002EFF050016D0FFF779FE00210C23DFF8D0
:10384C00C8254B431A4413884BB94FF6F8731380B1
:10385C0055600023936021716968A16013E7491CCE
:10386C000629EBD300F076FB00BF10B50446606868
:10387C000C3080B2FFF79BFE00B91AE06168018141
:10388C0000210160FF2181720C30A060002010BD6E
:10389C0080B540680C3811E080B288E610B504465B
:1038AC00606880B2FFF783FEA06000B901E00020E1
:1038BC0010BD6FF0030010BD80B54068FFF7B8FE77
:1038CC00002002BD38B504460D46FFF72FFE00213F
:1038DC0045F80C1C216811B9256006E0114651F819
:1038EC000C2C002AFAD141F80C5CBDE8324028E6D9
:1038FC002DE9F04104466FF00206E068A0F10C05DA
:10390C00A0790628BCBF207906280BDAFFF70EFE3B
:10391C00A179DFF8F4840C2779434144496819B93B
:10392C00FFF70FFE304617E0FFF70BFE20792871EA
:10393C00A0796871207AA871A079E1687843404435
:10394C0040680830FFF7BEFFA079784340444068D8
:10395C004068FCF74DFE0020BDE8F08170B500F02A
:10396C0024F8FFF77AFE060002D16FF0040070BD58
:10397C00FFF7DCFDB168002541B10D46A5F10C0146
:10398C000A68B26000220A60FF228A72FFF7D9FD32
:10399C002800A56001D1022070BDA5F10C000179B1
:1039AC0021714079A071002070BD0446FFF790BDD5
:1039BC0006280ADA0C23DFF850245843105A020068
:1039CC001CBF4FF6F872904202D14FF0FF30704797
:1039DC00088000207047811D0079E9E710B5044686
:1039EC00E088FFF77BFEFF2800D104E0A0712046A1
:1039FC00BDE810407CE74FF0FF3010BD3EB50446EB
:103A0C00FFF7ACFF050017D120796946FFF7D0FF0F
:103A1C0078B10820ADF804000320ADF80600DFF8FB
:103A2C00F413A0688968029001A888476FF005001C
:103A3C003EBDBDF80000A08028463EBD10B5DFF8A5
:103A4C00D82312680C464FF47A71A1FB00010023B5
:103A5C00FEF7DAFF002399424FF0004201D8904262
:103A6C0002D36FF0020010BD2060002010BD38B5ED
:103A7C00FFF79BFFFFF7F1FD0546FDF71AFE002847
:103A8C0018BF012800D015B96FF0040032BD606872
:103A9C0040B9009000996868FCF7AEFD401E80416B
:103AAC00C00F32BD10F1010F08BF4FF0FF30F0D046
:103ABC006946FFF7C3FF0028ECD032BD80B54068E3
:103ACC00FCF796FD002002BD00F044FA00BF80B563
:103ADC004068FFF701FD002002BD80B54068FFF78C
:103AEC00FFFC002002BD80B5FFF7FEFCFFF700FDD8
:103AFC00002002BD80B5FDF78BFFFCF771FD0020A7
:103B0C0002BD10B58CB004466846FFF701FDE020FD
:103B1C0000F013F808B900F01DFA0BE010B58CB0EA
:103B2C0004466846FFF7F4FCE06800F006F808B9B4
:103B3C0000F010FA00200CB010BD08900023A16812
:103B4C0060686A46FFF7D8BC10B50446FFF7D8FC8E
:103B5C006060002010BD0146886849680847F0B5D0
:103B6C0007468BB0BC68AB4D6CBB0C20FFF71FFD40
:103B7C0004006FF003061ED008232422002101A8A4
:103B8C00FCF73EFD0020ADF81400069007940023CE
:103B9C007968A24801AAFFF7B7FC206068B9082031
:103BAC00ADF800000C20ADF802006846A968884703
:103BBC002046FFF73DFD304618E0F8686060386934
:103BCC00A060BC600AE02868804706462068FDF7C4
:103BDC00D2FD3869A06030466968884779682068EA
:103BEC00FCF712FD2068FCF713FD00200BB0F0BDB4
:103BFC0010B5044682B060686946FFF71FFF20B914
:103C0C00009860602046FFF7AAFF16BD80B540689B
:103C1C0010B96FF0020002BD0068FDF7ACFD00208A
:103C2C0002BD7D49096841600020704750B50446CB
:103C3C00794802686FF00046A6FB020100234FF49E
:103C4C007A72FEF7E1FE002399424FF0004201D850
:103C5C00904200D330466060002050BD2DE9F04109
:103C6C0086B00646FFF734FCFFF7F7FC044600204D
:103C7C0002900025FDF71DFD002818BF012800D07B
:103C8C0014B96FF0040063E0706820B110F1010FFB
:103C9C0003D14FF0FF30009004E06946FFF7CEFEF1
:103CAC00070054D1FFF72CFC0099012701EB000809
:103CBC0000E0009000996068FCF79EFC78B303A8C4
:103CCC00FFF74CFE07001AD19DF8100001A9FFF771
:103CDC006FFE80B9059A9DF81210BDF80400B36808
:103CEC00984740B1BDF80400B0819DF81200B07344
:103CFC000598306113E0059902A8FFF7E3FD0098E1
:103D0C0001276D1C10F1010F18BF0028D2D0FFF74E
:103D1C00F7FBB8EB000002D000998142C9D2029E99
:103D2C00FFF704FC56B1314600E0114651F80C2C5B
:103D3C00002AFAD1A26841F80C2CA660FFF701FC0E
:103D4C00002D03E06068FCF753FC6D1EFAD1384679
:103D5C0006B0BDE8F081F8B5FFF727FE0546FDF784
:103D6C00A8FC002818BF01286FF0040613D0FFF739
:103D7C00DDFB0021244A0C234B43D75A4FB113448B
:103D8C005B681B68AB4201D1217106E0491C062916
:103D9C00F1D3FFF7D6FB3046F2BDFFF7D2FB002084
:103DAC00F2BDF8B50446FDF784FC002818BF0128C5
:103DBC0002D16FF00400F2BDFFF78AFB0546FFF756
:103DCC00B5FB0021104A0C234B43D65A37000ED0BA
:103DDC00A788BE4208D1D11849680968A9420CBF0E
:103DEC0001210021A160D8E7491C0629EBD3FFF77C
:103DFC00A8FB4FF0FF30F2BD00000000341D002086
:103E0C00703F0020CC13002060130020EC02002037
:103E1C0049370000D8020020E8000000633B000096
:103E2C0070B504463C20FFF7C2FB05006FF003069B
:103E3C0011D0FFF774FB207AA861002260892862F8
:103E4C002946E06828616068FFF73EFB0446284677
:103E5C00FFF7EEFB0CB9304670BD002070BD0000C2
:103E6C0041882D2902D36FF0010070470FF2140224
:103E7C0052F82110084700001B37000039350000AC
:103E8C004F350000E537000035380000773800006A
:103E9C009D380000A9380000C5380000FD3800002E
:103EAC0069390000E9390000093A00007B3A00004A
:103EBC00C93A0000D53A0000DB3A0000E73A0000AE
:103ECC00F33A0000013B00000F3B0000553B0000A3
:103EDC00FD3B00002F3C0000393C0000E3390000A2
:103EEC0027590000FB590000693C0000633D0000AD
:103EFC006B3B0000193C000095590000CD590000A7
:103F0C00E1590000AF3D00002D5A0000455A000059
:103F1C002D3E000000000000000000003B5A000095
:103F2C00535A0000293B0000000000000000000074
:103F3C000000000000000000DFF800F0F1C50110E7
:103F4C0001B90149FFF7F8BFA0010000DFF800F04C
:103F5C00ED8C01100120FFF7F9BF0000DFF800F035
:103F6C0061C20110DFF800F0E9C20110DFF800F0C7
:103F7C00E1C20110DFF800F0B9C20110DFF800F067
:103F8C00F9BF011050F8382F11430160704750F8F9
:103F9C00382F22EA010101607047817DFF291CBF87
:103FAC00C07DFF2801D0012070470020704738B534
:103FBC000446FCF715FB0546207820B90220FDF7D6
:103FCC005FFE012020700BE038B50446FCF708FBBF
:103FDC000546207820B10220FDF7E8FD0020207076
:103FEC002846BDE83240FCF7FFBA4068B830FCF711
:103FFC00FFBA4068D430FCF7FBBA70B544688568EA
:10400C000E4606E0206A401C2062761E606A401C48
:10401C0060624EB1206ADFF8B02712680178286818
:10402C00926990470028EDD1304670BD70B5456857
:10403C0086680C4608E0296B0870641E286B401CCF
:10404C002863686B401C68633CB100F009FA306867
:10405C000969884710F1010FEDD1204670BD70B58C
:10406C00446804F1F0050E462846FDF784FB217FD9
:10407C00627FDFF8580700685118C91D7143DFF8DB
:10408C0050275143A269B1FBF2F141186331B1FBE6
:10409C00F0F0411C2846FCF7B7FA2846BDE8704002
:1040AC00FCF7B6BAF8B504466568A76805F1F006E2
:1040BC003046FDF760FB386818300068000711D5F2
:1040CC00DFF8081709684FF4FA70B0FBF1F1022918
:1040DC0038BF01213046FCF797FA3046BDE8F24074
:1040EC00FCF796BADFF8EC06FFF76EFF3868202174
:1040FC00FFF74DFF00F065FA00F05CFA204601B0C6
:10410C00BDE8F040184738B504460D462021286814
:10411C00FFF73DFF297DE06C01221BF038F9297D6A
:10412C00E06C01221BF050F9297DE06C00221BF0A1
:10413C0076F9A97DE06C00221BF071F9A0780128BA
:10414C0005D12868183000680007FAD405E04FF054
:10415C00FF3104F1B800FCF74FFA00F04FFB284692
:10416C00FFF71BFF30B1A97DE06CBDE83840112290
:10417C001BF055B931BD2DE9F84380460024D8F821
:10418C0008703868D8F8049000F1400109F128064D
:10419C000D6800F1440115F4F06F0D6028D069052D
:1041AC000ED500F059F8016040463769212F28BF21
:1041BC0020273946FFF73AFF14E03069401E306182
:1041CC00306978B101214046FFF730FF386800F0C4
:1041DC0043F8002C0160F0D0B068401EB060F0686D
:1041EC00401EF06089F81F40404600F032FA22E091
:1041FC00680609F184090BD531694046FFF716FFB3
:10420C003061707908B1346112E0306900280EE039
:10421C00E80610D5307D3769401EB84238BF0746D6
:10422C0039464046FFF702FF3069C01B306102D1AE
:10423C004846FDF72DFAA8060CD5356855B1294628
:10424C004046FFF7DAFE306020B9291D4046BDE834
:10425C00F44304E7BDE8F18350F8041F01F00F04A8
:10426C000021704770B504466568A668DFF86805DC
:10427C00FFF7AAFE00F00BFAFFE140680021017085
:10428C00DFF85405017041707047F0B504468DB0ED
:10429C006568A7680E46FCF7A3F92978002943D175
:1042AC0001212970FCF7A0F9307868700021707832
:1042BC00A87070686860B068A860F068E8603069E1
:1042CC002861307D2875707D6875B07DA875B069E2
:1042DC00A861307F2877707F6877B07FA87700203F
:1042EC00286205F12C00416069628160A962C1609D
:1042FC000170417010210174002141747868FDF740
:10430C00D4FC204600F0D0F9204600F022FA78B90F
:10431C0000F0A6F83868C96888477868FDF75AFC39
:10432C00FCF75EF900212970FCF75EF900205EE0D5
:10433C0008233022002101A8FCF776F9069401AB82
:10434C00387BDFF8982409900020009005F1680074
:10435C00B968FCF76DF908232822002101A8FCF7A5
:10436C006BF9059400233869DFF87414079001AADF
:10437C0005F18400FCF764F908232422002101A82C
:10438C00FCF74AF901208DF81C00A87840B901AA65
:10439C00002105F1B800FCF743F9DFF84804286167
:1043AC00687840B901AA002105F1D400FCF738F96E
:1043BC00DFF83404E86008232422002101A8FCF76C
:1043CC001FF900200690ADF81400079401AB0A22E7
:1043DC00DFF8181405F1F000FCF73AF923460FF258
:1043EC002942042105F15400FDF7D0FB20460DB005
:1043FC00F0BD38B544688568E06C1AF0BAFF2868DF
:10440C0040F2F271FFF7C3FD00F02AF82868C96882
:10441C0088476868FDF7DEFB04F16800FFF79EFD36
:10442C0004F18400FFF79EFDA07818B904F1B800E0
:10443C00FFF79CFD607818B904F1D400FFF796FDE6
:10444C0004F1F000FFF796FDFCF7CAF8002121708B
:10445C00FCF7CAF804F15400BDE83240FDF765BD25
:10446C00DFF864130968704770B502462029546858
:10447C006FF0010004D01DD3222909D004D370BDE4
:10448C00012084F82D0014E0002084F82D0070BD6C
:10449C009568FCF7A5F80646FFF7E2FF286809695E
:1044AC00884710F1010FF7D10020A0633046FCF7CC
:1044BC009BF8002070BD2DE9F84304466668A76898
:1044CC0089469046FCF78CF80546B06A18B1284628
:1044DC00FCF78AF842E006F1F000FDF74CF90020F9
:1044EC00F0777062C6F820902846FCF77DF8BA4D3C
:1044FC00681CFFF75CFDBE48016841F480710160E7
:10450C0020464146FFF779FDB06206F1B80958B96B
:10451C0041462046FFF7A3FDB07820BBB168484662
:10452C00FCF76AF8E8B90FE038682021FFF72AFD9C
:10453C00B078C0B9B1684846FCF75EF888B9414616
:10454C002046FFF78CFD0020B06239461020F07732
:10455C003046FFF7D8FD681CFFF736FD4FF0FF30F3
:10456C0002E0706A00E00020BDE8F2836EE070B5F6
:10457C0000F091F8A96A29B931681831096809075E
:10458C0000D48DE00021A962FCF72EF83046FFF72D
:10459C0004FD18B131462846FFF7B5FD30682021DF
:1045AC00FFF7F5FC00F00DF88A48FFF70DFD00F061
:1045BC0001F868E06A6A286A2B6951420144296251
:1045CC0070478B48016821F4807101607047F8B521
:1045DC00446885680E461746FCF702F8A16B21B1BA
:1045EC00FCF702F84FF0FF30F2BDE1776163A7638F
:1045FC002663FBF7F9FF784E3046FFF7D8FC7C4872
:10460C00016841F4007101604FF4FA612868FFF70A
:10461C00B9FC6078B8B9616804F1D400FBF7ECFF21
:10462C0078B9A0634FF4FA612868FFF7B0FC304604
:10463C00FFF7CAFC616B206B4942084420631020D1
:10464C00E077606BF2BD0020F2BD00BF4FF0FF3091
:10465C00704770B500F01FF8A96B01B920E000217C
:10466C00A963FBF7C1FF00F012F86148016821F45F
:10467C00007101605848FFF7A7FC6A6B286BEB6868
:10468C005142014429632046BDE870401847306808
:10469C004FF4FA617BE404466568A668FBF7A0BF9B
:1046AC00BDE87040FBF7A0BFF0B587B0044602A888
:1046BC000FF26411444E1422FDF77CFE6568A46869
:1046CC0031682068C968884740F2F277206839461B
:1046DC00FFF75DFC206800F1440102AB0F6005F1AF
:1046EC003C014A780978C90853F82110114340F865
:1046FC00341F6846FFF742FC05F118000FF22C112D
:10470C00027951F822100FF23412437952F8232017
:10471C00837935686D6811430FF2281252F8232003
:10472C0042EA0103026801992068A847314D2868C4
:10473C0040F010002860686840F001006860204676
:10474C00FFF72BFC18B1686840F44040686007B074
:10475C00F0BDF0B585B085684468687D264F40F0A3
:10476C00004000900826287D384301902846FFF72A
:10477C0014FC38B1A87D40F0004002901026E87D72
:10478C0038430390FE204DF80600694604F14000C2
:10479C001AF087FDE064A0B1697D0F221AF03FFE8C
:1047AC0000F02CF82846FFF7F8FB48B1A97DE06C27
:1047BC0011221AF034FEE97DE06C12221AF02FFE61
:1047CC00012005B0F0BD0000D0010010E800000091
:1047DC0040420F002C1D00202B1D002083410000A7
:1047EC0071420000F73F0000FF3F0000B1400000A5
:1047FC00301000402C1000400000C0A0297DE06C5F
:10480C0010221AF00CBE000080B5042804BF10461C
:10481C00FFF74AFF002002BD000000000800000066
:10482C001000000018000000200000000000000034
:10483C0020000000400000006000000000000000AC
:10484C00080000000000000006000000020000004C
:10485C008600000082000000DFF800F025B1011096
:10486C00DFF800F02DBF0110DFF800F0A9C1011036
:10487C00DFF800F013C10110DFF800F011BF0110D8
:10488C00DFF800F021B9011000B583B000F00DF88D
:10489C00032114E0E0B500F008F8042100F012F850
:1048AC0008B100200EBD02980EBD0821ADF8001015
:1048BC000190704700B583B0FFF7F7FF052100F0BA
:1048CC0001F807BDADF802106846DFF8C41309689B
:1048DC0008472DE9F04784B0DFF8B483DFF8B45310
:1048EC00DFF8B463DFF8B4730EE0B869FBF780FE51
:1048FC00B888410708D54FF6FB710840B88000F026
:10490C00D7F808B900F0D7F8B8694FF0FF31FBF7CA
:10491C0073FE30688047FA883B89B9881A437B89D3
:10492C001A431143B9800021F980398179812968B2
:10493C008847B888010603D54FF67F710840B880C8
:10494C000820ADF800000920ADF802006846D8F840
:10495C0000108847002801BF029C9DF8060039789A
:10496C00884231D1396A080007D0B878012802D0C2
:10497C0002281BD001E02046884720461AF0A2FDF1
:10498C00040021D00C20FFF785FF5FEA000919D045
:10499C00306880478246C9F80840207848B9F868E2
:1049AC004946FFF75DFF00F086F807E02046884790
:1049BC000AE04846FFF77EFF00F01AF929685046D6
:1049CC00884701E000F014F93879C0062ED500F0C4
:1049DC006FF8F8B91AF0D2FEE0B930688047044697
:1049EC0000F066F898B9F868FFF73EFF5FEA000937
:1049FC000DD0D9F808104868786149881AF0F8FE8B
:104A0C00D9F80800FFF756FF4846FFF753FF29680F
:104A1C002046884700F04CF828B1B8884FF6EF7163
:104A2C000840B88002E0B869FBF7E2FD38798007EE
:104A3C000DD51AF079FD00F068F928B9B8884FF651
:104A4C00FD710840B88002E0B869FBF7D1FD3879F8
:104A5C0000072CD53869FFF70BFFE8B93869FFF769
:104A6C000BFF040018D0F96938780A001CBF7A785B
:104A7C00002A0CD0022A01D002D30BE0A06804E07B
:104A8C00A16800F098F8A068F969884702E0A1686D
:104A9C0000F091F800F0ACF83869FFF7E9FE002857
:104AAC003FF423AFB8884FF6F7710840B8801FE782
:104ABC00F868FFF7DDBEB88840F01000B880B86920
:104ACC00FBF796BD10B5754C0020A080606186B0D8
:104ADC000021FFF7D5FEE06000210020FFF7D0FE9B
:104AEC0020610820ADF800000020ADF8020038204D
:104AFC00ADF80400002066490968029068468847B2
:104B0C009DF80C0020700498A0610FF209101AF0A7
:104B1C00D0FC0FF295120FF259110FF2D9001AF0C6
:104B2C0015FEFFF7D6FE06B010BDCBE730B55C4CDA
:104B3C0020604FF400758FB0DD22294604F154003B
:104B4C00FEF724FC08233C2200216846FEF7B4FC47
:104B5C0004F15400079008950220069000236A4641
:104B6C005049201DFFF778FE0FB030BD70B51AF01C
:104B7C00A9FC04460C20FFF78DFE0546464800684C
:104B8C008047002C18BF002D06460ED0AC60207854
:104B9C0058B9424CE0682946FFF762FEA08840F005
:104BAC001000A080A069FBF723FD3046BDE87040E3
:104BBC0038490968084730B585B00C468DF80400B3
:104BCC00082137480068ADF80600ADF80010002049
:104BDC008DF80800ADF8021060682D490968039043
:104BEC0068468847054600F003F8284605B030BDF6
:104BFC0020465FE610B5294C606918B1FFF744FEFA
:104C0C00002060610420E080A069BDE81040FBF743
:104C1C00EFBC0000F8B504460D4616460C20FFF715
:104C2C0039FE07460820FFF735FE002F18BF002875
:104C3C001CD045604480B8607EB90021174C0170CF
:104C4C0039462069FFF70CFEA08840F00800A080D0
:104C5C00A069BDE8F240FBF7CBBCFFF72BFE384652
:104C6C00FFF728FE2846BDE8F2400DE6F1BD000036
:104C7C0010B5044600F059F8844208DAA0B200F0EE
:104C8C001DF8064802214181BDE8104012E0FEE704
:104C9C00E0020020DC020020D8020020681700206F
:104CAC0014150020374B0000004801E06817002065
:104CBC00802101818069FBF79BBC0000F8B52C4C6E
:104CCC002C4F0646608800258119B1F5877F08DDD9
:104CDC00C0F58775A9B238181AF073FD0020761B41
:104CEC006080B1B2608838441AF06BFD608830186F
:104CFC0080B24FF4877190FBF1F14FF4877202FB95
:104D0C0011006080A81980B2F2BD19484188008852
:104D1C00081A00F587704FF4877190FBF1F14FF48E
:104D2C00877202FB110080B2704780B5FFF7EDFF70
:104D3C00C0F5877080B202BDF0B50D4B0D4D1C88CF
:104D4C0000220EE0A4B24FF487772E5D00F8016BC1
:104D5C00641CA4B24FF4877694FBF6F607FB16445A
:104D6C00521C96B28E42EDD31C800846F0BD00005A
:104D7C00241D002004140020E0B50821ADF800101B
:104D8C000190022100F00FF808B100200EBD02982E
:104D9C000EBD00B583B00821ADF8001001900321C1
:104DAC0000F001F807BDADF802106846DFF890126C
:104DBC00096808471FB5ADF806108DF804000824E3
:104DCC00DFF87C128DF808200393ADF80040ADF8A5
:104DDC00024068460968884704B010BD30B585B0FC
:104DEC00144608220291ADF800201922DFF8501267
:104DFC0009680190ADF802201D466846884714B139
:104E0C00BDF80C10218015B19DF80E102970089A70
:104E1C000499116005B030BD00B583B00820ADF821
:104E2C0000001A2000F015F810B99DF804000EBD12
:104E3C00FF200EBD00B583B0ADF800008DF8061054
:104E4C00002000F006F810B99DF807000EBDFF20F9
:104E5C000EBDDFF8EC110968ADF802006846084792
:104E6C0050B110F1040F01D10420704710F1030F61
:104E7C0001D102207047012070478123037042EA60
:104E8C00C111002341F47C41C3708180704782239F
:104E9C00037081800023C370827170473EB5044655
:104EAC000820ADF800000D462020ADF802001020BF
:104EBC00DFF88C110968ADF804006846884720B902
:104ECC00029810B16FF004003EBD00950023002243
:104EDC0021464FF0FF30FFF781FF3EBD10B582B089
:104EEC001446CA78012A03D18A88DFF8A0311A80C7
:104EFC0000F010F858B9009069462046FFF7CEFF35
:104F0C0028B900984478FFF744FF204616BDFFF7F8
:104F1C00A7FF16BD0B46022210214BE7F8B500F097
:104F2C00BBF800F0ACF807000DD032462946FFF76D
:104F3C00AEFF00F0A0F83872FFF76EFF3B4601B0F1
:104F4C00BDE8F04021E0F1BD10220121E6E710227E
:104F5C00FFE70021E2E7002204215CE00420BDE829
:104F6C00F08110B500F0B0F804000AD0112200F066
:104F7C000AF8FFF751FF2146BDE81040DFF8102179
:104F8C00ACE7042010BD022181E70222102111E7B9
:104F9C00002203213FE000B583B00FF249030193D7
:104FAC0006230093032300F04DF80EBD10788028E3
:104FBC0002BF508840F27F61884208D190889842A5
:104FCC0002BF91790098814201D1012070470020E5
:104FDC00704710B582B00624FFE70094FFF7E6FF98
:104FEC0016BD00000323F4E71078802802BF508818
:104FFC0040F27F6188420CD19088032818BF0428A6
:10500C0007D1907901001CBF1028112801D1012073
:10501C00704700207047F8B500F04DF807000CD031
:10502C0032462946FFF733FFBC60FFF7F5FE3946E1
:10503C00BDE8F840DFF85C2050E70420F2BD00002A
:10504C00E00200202DE9F04100F00EF807000AD034
:10505C00069A4146FFF71BFF3C817D8100F041F829
:10506C00079A00F034B879E704460D461646984680
:10507C001020FFF781BE21465020FFF7DBBE0A202F
:10508C00FFF77ABE04460C20FFF776BEF005002031
:10509C00B9500000F54F000004460D461646704707
:1050AC0000930123FFF782FF02BD000080B511239E
:1050BC0000930223F6E704460D4616460C20FFF734
:1050CC005BBE00208DF804000820FFF755BE394662
:1050DC00BDE8F041FFF702BF0521FFF7CEBE3C81D2
:1050EC00BD72FE60FFF798BE1078802802BF508812
:1050FC0040F27F6188420DD190884FF6807101405B
:10510C004FF68062914204BF00F07F00984201D1BB
:10511C000120704700207047000038B5FFF7B2FF40
:10512C0005000CD00422FFF7D7FFAC60FFF774FE2C
:10513C002946BDE838400FF20D02FFF7CFBE042020
:10514C0032BD00000423CFE710B5504CE0628AB0AA
:10515C002163A262684600F0B7F84FF4E130069084
:10516C00694600208DF815008DF8160003208DF887
:10517C001C0000208DF81D0001208DF800008DF81A
:10518C00010000208DF817000FF23D0003900FF284
:10519C001D000490002000F082F8606200222021A3
:1051AC0000F07AF800F044F80AB010BD10B5384899
:1051BC000068804704463548826A110002D0418C51
:1051CC000020904740E00000F8B500F05AF8144673
:1051DC0080470546CCB1318C002089B2B1F5877F70
:1051EC0009DAF76A335C7B5400223254401C491CA8
:1051FC00C0B2A042F1D38442318406D0B26A10000E
:10520C0009D0718C4FF487709047B26A100002D0AD
:10521C000021A0B29047002030842022706A3146D1
:10522C0000F057F82846BDE8F4401A4909680847C9
:10523C0010B51748006880470446144900200884BC
:10524C002022486A00F045F8204612490968BDE85A
:10525C001040084770B5044600F013F88047054627
:10526C00316B706A7484224600F036F8094910F1EB
:10527C00010F04BF00207084096828468847708C91
:10528C0070BD0348014E006870470000C41900202F
:10529C00D8020020DC02002003685B681847084A2B
:1052AC001268904201D30020704709B90FF2300107
:1052BC000C224243034B98189A58D26810470000AE
:1052CC001C030020B05F00000FF214012422FDF734
:1052DC0071B803681B6918470368DB69184700003D
:1052EC0000000000FFFFFFFFFFFFFFFF00000000BA
:1052FC00000000000101010100C2010003000000D8
:10530C0000000000E0B50821ADF80010019002216A
:10531C00ADF80210684689490968884708B1002031
:10532C000EBD02980EBD00B58FB008233C220021A3
:10533C006846FEF7C1F8824800F15001079100233E
:10534C004FF4217108916A46012106910FF2A501D3
:10535C00FFF782FA0FB000BD10B584B00820ADF88D
:10536C00000001207549774C0968ADF802006846C9
:10537C0088479DF80400207000212161FFF7E4FDAF
:10538C00FFF7EFFD201DFFF7C8FE4FF0FF30FFF7D2
:10539C00FFFD4FF0FF30FFF7DEFDE08900F00C0160
:1053AC000C2903D10A220FF2A0210DE0010703D52D
:1053BC000E220FF2A02107E0400747BF11220FF287
:1053CC00A4210E220FF2B02104F11800FCF7F2FF19
:1053DC0004F1180000F058F9C1B204F118020020D1
:1053EC00FFF7D9FD04F1140202210120FFF7D3FDD0
:1053FC001FBD000070B586B0FFF7AEFF514C4F4D8E
:10540C000820ADF800000A20ADF802004FF0FF3084
:10541C0001906846296888470028F1D10820ADF82A
:10542C0008000920ADF80A0002A829688847BDF8D1
:10543C000C109DF80E20049E0028E1D1102904BF09
:10544C002078824205D13078912804BF304600F094
:10545C000BF80820ADF800000320ADF8020001960F
:10546C00684629688847CBE730B583B0364A44781C
:10547C001388811C0E2C4FF6FF7506D00F2C0FD005
:10548C003E2C39D0FF2C4CD037BD81888B424BD071
:10549C00836830F8040CA0F10C02D2B20E2049E063
:1054AC008488A34240D042F23200844244D10D7829
:1054BC000F20FFF727FF00283ED004210170FF21A9
:1054CC0041700721418000F10801416004214268CC
:1054DC0011700F214268517004214268917041682B
:1054EC00CD7001214268117141684C71210A4268EA
:1054FC009171FFF73BFB37BD09780C291CD18DF856
:10550C0000106946C2784A7082888A708288120AB2
:10551C00CA7082790A71C0794871062000F06BF864
:10552C0037BD4C88A34201D1158037BD83680A78FA
:10553C002146FF2000F00AF837BD0000E0020020F1
:10554C008C100020A8020020F00500202DE9F0426C
:10555C0081460C461546B9F1FF0F05F10B0014BF3F
:10556C000321022108181E46C0B2FFF7CBFE07002C
:10557C003FD004203870FF20787007F10800786065
:10558C00042079680870786880F80190200A79689E
:10559C00B9F1FF0F10D0EA1C8A7001217A68D17022
:1055AC002A4679680C717968487131467868801D93
:1055BC00FCF7F0FEA81D15E0AA1C8A707A683178F9
:1055CC00D1707A68717811717A68B1785171EA1E6C
:1055DC0079688C717968C871F11C78680830FCF7AF
:1055EC00D9FE681DC0B278803846BDE8F042FFF79E
:1055FC00BDBABDE8F08270B5044604F10B000D464F
:10560C00C0B2FFF77FFE06001DD004203070FF20D3
:10561C007070E01C708006F10800706004207168E6
:10562C0008703E207168487070688470200005D046
:10563C00706822462946C01CFCF7ACFE3046BDE81B
:10564C007040FFF793BA70BD544920424C4520413D
:10565C006C6C0000544920424C452043656E7472BA
:10566C00616C0000544920424C45205065726970B1
:10567C00686572616C000000544920424C4520550D
:10568C006E6B6E6F776E000000F10103810704D022
:10569C0010F8011B89B18107FAD10268B2F101310E
:1056AC00914311F0803F04BF50F8042FF6E710F837
:1056BC00011B11B110F8011BFBE7C01A7047016800
:1056CC000A680A4482604B681A44C260083101605F
:1056DC0070478168C268914208D101680A680A441F
:1056EC0082604B681A44C260083101608168491CB1
:1056FC00816011F8010D704738B504460D46A0685D
:10570C00E168884212D120686168884208BFFEF7C0
:10571C0021FC2068227C016802B14944A1604268E6
:10572C000A44E260083091422060ECD0A068401C32
:10573C00A06000F8015D31BD2DE9F0418AB000F1A7
:10574C00080105910268520801EBC2010691002183
:10575C00079108910168490800EBC10108310091DB
:10576C00017901F001018DF8101040680099400892
:10577C0001EBC000019000200290039006E005A808
:10578C00FFF79DFF07980899884207D1059806995D
:10579C008842F4D101980AB0BDE8F08105A8FFF762
:1057AC0098FF044614F0030603D105A8FFF791FFF8
:1057BC00C61C25090F2D14D105A8FFF78AFF00F18F
:1057CC000F050EE007980899884204BF05A8FFF75B
:1057DC0076FF0798401C079010F8011D6846FFF7EC
:1057EC008BFF761EEED1002DCCD005A8FFF771FFF4
:1057FC000646A00800F00300032804BF05A8FFF725
:10580C0068FFDDF800800299039F06EB002008E09A
:10581C00A8F10808A8F10801801A0A684968571805
:10582C00394658F8082C8A1A8242F1D340420C1897
:10583C00AE1CA7D0BC4206D158F8044B58F8040B48
:10584C002718BC42F8D00298039914F8015B8842DF
:10585C0017D100980199884208BFFEF77BFB00988E
:10586C0000689DF81010029009B14844029000990C
:10587C0002984968009A01440832884203910092C8
:10588C00E7D00298401C0290761E00F8015D3FF4B0
:10589C0079AFCFE780B501280CD002280CD00428B2
:1058AC0002D008280AD00BE000201146126890475D
:1058BC00002002BD0220F8E70420F6E70520F4E7FB
:1058CC00FEF748FB00BF10B5044601E0FCF7D8F921
:1058DC00B4FA84F0202800D110BD00F016F8F5DBE6
:1058EC00401FFCF7E2F9F3E710B5044601E0FCF7C2
:1058FC005DF9B4FA84F0202800D110BD00F005F851
:10590C00F5DB401FFCF766F9F3E7C0F11F00C0B2EE
:10591C00012181404C400528704738B505460120CF
:10592C0068713D4C2879A8B1FDF700FE054620783A
:10593C00FF2805D12846FDF704FE6FF0060032BDA6
:10594C00401C2070C0B2012804BF6068FFF7BBFF89
:10595C00284615E0FDF7EAFD21780A0004D1FDF791
:10596C00F0FD6FF0070032BD491E2170C9B239B984
:10597C00FDF7E7FD6068FFF7B7FF0020687101E0F5
:10598C00FDF7DFFD002032BD70B50446606810F0F5
