S029000053797374656D436F6E74726F6C6C65725F53435F56345F3432395F56475F4D41582E7372656335
S3150800000008800010ADC10008E1C10008E3C100087E
S31508000010E5C10008E7C10008E9C1000800000000C2
S31508000020000000000000000000000000692E000823
S31508000030EBC1000800000000112E0008771900081F
S3150800004069C200086DC2000871C20008FDB7000841
S3150800005075C2000879C20008FDC0000805B7000887
S315080000607DC2000881C2000885C20008798100089F
S3150800007089C200088DC2000891C2000895C200080E
S315080000806158000899C200089DC20008A1C200086C
S31508000090A5C20008A9C20008ADC2000845B90008F3
S315080000A0B1C20008B5C20008B9C20008BDC200083E
S315080000B0C1C20008B5B80008C5C200082B950008DB
S315080000C037950008C9C20008CDC20008D1C2000889
S315080000D0D5C20008E95700080D5800081958000845
S315080000E01D810008D9C20008DDC20008E1C2000867
S315080000F0E5C20008E9C20008EDC200087B810008D5
S31508000100F1C20008F5C20008F9C20008FDC20008DD
S31508000110F557000801C3000805C3000809C300080D
S315080001200DC3000811BD000811C300081DB800085A
S3150800013015C3000819C300081DC3000821C3000819
S3150800014025C3000829C300082DC3000831C30008C9
S3150800015035C3000839C300083DC300080158000824
S3150800016041C3000845C3000849C300084DC3000839
S3150800017051C3000855C3000859C300085DC30008E9
S3150800018061C3000865C3000869C300086DC3000899
S3150800019071C3000875C3000879C300087DC3000849
S311080001A081C3000885C300088BAF000867
S30908000200F8FEFFFFF8
S30908000204FFFFFFFFEC
S30908000208FFFFFFFFE8
S3070800020C0000E2
S3060800020E03DE
S3060800020F03DD
S3090800021000000008D4
S3090800021445434732D7
S3090800021853433034DA
S3150800021C00000000000000000000000000000000C4
S3150800022C00000000000000000000000000000000B4
S3150800023C00000000000000000000000000000000A4
S3150800024C0000000000000000000000000000000094
S3150800025C0000000000000000000000000000000084
S3150800026C0000000000000000000000000000000074
S3150800027C0000000000000000000000000000000064
S3150800028C0000000000000000000000000000000054
S3150800029C0000000000000000000000000000000044
S315080002AC0000000000000000000000000000000034
S315080002BC0000000000000000000000000000000024
S315080002CC0000000000000000000000000000000014
S315080002DC0000000000000000000000000000000004
S315080002EC00000000000000000000000000000000F4
S315080002FC00000000000000000000000000000000E4
S3150800030C00000000000000000000000000000000D3
S3150800031C00000000000000000000000000000000C3
S3150800032C00000000000000000000000000000000B3
S3150800033C00000000000000000000000000000000A3
S3150800034C0000000000000000000000000000000093
S3150800035C0000000000000000000000000000000083
S3150800036C0000000000000000000000000000000073
S3150800037C0000000000000000000000000000000063
S3150800038C0000000000000000000000000000000053
S3150800039C0000000000000000000000000000000043
S315080003AC0000000000000000000000000000000033
S315080003BC0000000000000000000000000000000023
S315080003CC0000000000000000000000000000000013
S315080003DC0000000000000000000000000000000003
S315080003EC00000000000000000000000000000000F3
S309080003FC00000000EF
S315080004002DE9F04F85B004000D0016001F00DDF839
S315080004103880DDF83C90DDF840A0B9F1000F07D12F
S31508000420502080F31188BFF34F8FBFF36F8FFEE71D
S31508000430BAF1000F07D1502080F31188BFF34F8F10
S31508000440BFF36F8FFEE7BAF1000F1AD0B9F1000FAC
S3150800045017D0D346CBF8309002208BF859000020ED
S315080004600390CDF808B004A80190CDF800803B00B1
S3150800047032002900200000F04FF8584600F0BDF879
S3150800048001E000200490049805B0BDE8F08F2DE93E
S31508000490F04F85B004000D0016001F00DDF8388007
S315080004A0DDF83C90B6B2B00000F0C6FF8346BBF15B
S315080004B0000F0DD05C2000F0BFFF8246BAF1000F96
S315080004C002D0CAF830B005E0584601F04CF801E011
S315080004D000208246BAF1000F17D000208AF859008A
S315080004E000200390CDF808A0CDF80490CDF8008040
S315080004F03B00B6B232002900200000F00DF8504645
S3150800050000F07BF80120049002E05FF0FF300490D1
S31508000510049805B0BDE8F08F2DE9F94F83B00C00BB
S3150800052015000E9E0F9FDDF84080A8000190A520BB
S315080005300090D8F830B0009A0199584601F0D4F8DE
S31508000540D8F8300000EB8500001F81465FEAD9091C
S315080005505FEAC90919F00700002807D0502080F380
S315080005601188BFF34F8FBFF36F8FFEE700208246D7
S31508000570BAF10A0F0CD214F80A0008EB0A0181F83E
S31508000580340014F80A00002802D01AF1010AEFE72D
S31508000590002088F83D00082E01D307200600C8F879
S315080005A02C60C8F848600020C8F84C0018F1040010
S315080005B001F0DCF818F1180001F0D8F8C8F8108036
S315080005C0D6F10800C8F81800C8F824800020C8F832
S315080005D050000020C8F85400002088F85800049AF3
S315080005E00399484601F002F9C8F80000002F01D027
S315080005F0C7F8008005B0BDE8F08F10B5040001F01B
S3150800060084F9DFF854040068401CDFF84C140860CD
S31508000610DFF8B805006800280AD1DFF8B0050460DD
S31508000620DFF834040068012811D100F072FC0EE0EE
S31508000630DFF89C050068002809D1E06ADFF88C1508
S315080006400968C96A884202D3DFF880050460DFF8C2
S3150800065084050068401CDFF87C150860DFF874051F
S3150800066000682064002C14D014F13401200001F035
S31508000670D4FCE16A200001F022FD230014F13402C3
S315080006800321012001F010FCE26A2100102001F08C
S315080006908CFB2100302001F055FBDFF83C05006893
S315080006A00121E26A91400843DFF82C150860211DF4
S315080006B0DFF82805E26A14235A43104401F059F872
S315080006C001F040F9DFF80805006800280FD0DFF8C8
S315080006D0FC040068C06AE16A884208D25FF080506C
S315080006E0DFF8A0160860BFF34F8FBFF36F8F10BDFA
S315080006F038B504000025002C19D0DFF83806006844
S31508000700002807D0502080F31188BFF34F8FBFF31E
S315080007106F8FFEE700F0ADF821007A2001F012FB9A
S315080007200021200000F026FE00F0ABF80500002DA1
S3150800073008D15FF08050DFF84C160860BFF34F8F82
S31508000740BFF36F8F31BDF8B504002700002F07D11E
S31508000750502080F31188BFF34F8FBFF36F8FFEE7EA
S31508000760DFF868040068874202D1002005002AE005
S3150800077001F0CBF87869060001F0E4F8DFF8A40682
S315080007800068864204D0DFF8A0060068864202D1D7
S315080007900220050017E0DFF89406864208D1B86AF9
S315080007A0002802D1032005000DE0022005000AE01A
S315080007B0DFF84805864201D0002E02D10420050044
S315080007C001E0012005002800C0B2F2BD10B586B0D0
S315080007D0002004900020039005AA03A904A801F0AC
S315080007E066FD04980290039801900020009000236B
S315080007F0059ADFF890190FF2F560FFF701FEDFF8AA
S3150800080088190860DFF880090068002802D00120EE
S31508000810040001E000200400012C02D101F008FFC9
S315080008200400012C18D1502080F31188BFF34F8F94
S31508000830BFF36F8F5FF0FF30DFF8181A08600120EA
S31508000840DFF88C1308600020DFF83C15086002F01A
S31508000850F1F900F0F4FF0AE014F1010F07D1502076
S3150800086080F31188BFF34F8FBFF36F8FFEE706B093
S3150800087010BDDFF8C0040068401CDFF8B814086033
S31508000880704770B500240025DFF8A8040068002822
S3150800089007D1502080F31188BFF34F8FBFF36F8FB6
S315080008A0FEE701F032F8DFF88C040068401EDFF836
S315080008B084140860DFF87C04006800285BD1664869
S315080008C00068002857D0DFF88809006800282AD071
S315080008D0DFF87C09C068C068040014F1180000F04D
S315080008E071FF201D00F06EFF2100302001F02AFA6A
S315080008F0B94800680121E26A91400843B649086090
S31508000900211DB648E26A14235A43104400F031FF09
S31508000910E06AAE490968C96A8842D4D30120DFF87B
S31508000920281A0860CFE7002C01D000F0FEFBDFF89C
S31508000930F4090668002E0ED000F090F8002803D0BF
S315080009400120DFF8041A0860761E002EF4D1002074
S31508000950DFF8D0190860DFF8F009006800280AD027
S31508000960012005005FF08050DFF818140860BFF317
S315080009704F8FBFF36F8F00F0E5FF280070BDDFF8DB
S31508000980081409680800704738B501F015F8002002
S315080009900500DFF8F40300680400200032BD2E4885
S315080009A0006870472DE9F04104000D001600002785
S315080009B05FF00808FFF75DFF27480068854244D3C3
S315080009C0B8F1010801228548142101FB08F1014408
S315080009D0242000FB07F0204400F040FBC019070064
S315080009E0B8F1000FECD10222DFF8380401682420A0
S315080009F000FB07F0204400F031FBC0190700022273
S31508000A00DFF824040168242000FB07F0204400F0E6
S31508000A1025FBC01907000422B849242000FB07F06B
S31508000A20204400F01BFBC01907000322DFF8FC1363
S31508000A30242000FB07F0204400F010FBC019070033
S31508000A40002E02D002F00EF93060FFF71AFF3800C8
S31508000A50BDE8F0810000000088D400202DE9F041AF
S31508000A600026B4480068012804D0DFF8B8080068F2
S31508000A70002806D1DFF8D4080068401CDFF8CC1837
S31508000A800860AC480068002805D1BF480068411CCA
S31508000A90312001F057F9A7480068002840F0838004
S31508000AA0B9480068471CB8480760002F24D1DFF80A
S31508000AB0740300680068002807D0502080F3118866
S31508000AC0BFF34F8FBFF36F8FFEE7DFF85803006859
S31508000AD08046DFF854030068DFF848130860DFF83B
S31508000AE04803C0F80080DFF868080068401CDFF893
S31508000AF06018086000F019FBDFF85807006887429D
S31508000B003ED3C84800680068002805D15FF0FF306A
S31508000B10DFF84017086033E0C2480068C068C0685C
S31508000B20040060680500AF4203D2DFF828070560B5
S31508000B3026E0201D00F046FEA06A002803D014F126
S31508000B40180000F03FFE2100302001F0FBF8224893
S31508000B5000680121E26A914008431F490860211D87
S31508000B601E48E26A14235A43104400F002FEE06A63
S31508000B7016490968C96A8842C3D301200600C0E736
S31508000B80164812490968C96A14225143405802286E
S31508000B9001D301200600DFF88C07006800280BD176
S31508000BA002F037F808E0DFF87C070068401CDFF839
S31508000BB07417086002F02DF8DFF88C070068002823
S31508000BC001D0012006003000BDE8F08178D400206D
S31508000BD094D40020A4D4002090D4002038CF00203C
S31508000BE038B554480068002804D00120DFF85817A3
S31508000BF0086081E00020DFF85017086002F032F83C
S31508000C00DFF850170860DFF850070068DFF8441768
S31508000C10096888420CD2DFF850070068016DDFF8D2
S31508000C20342712685118DFF830271268891A0165C7
S31508000C30DFF820070068DFF820170860DFF82807C4
S31508000C400068006B05005FF0A53004002868A04224
S31508000C5008D16868A04205D1A868A04202D1E86810
S31508000C60A04209D0DFF80007006810F13401DFF868
S31508000C70F806006801F0CEFFDFF8E0060068B0FA73
S31508000C8080F0D0F11F000400DFF8D406142101FB20
S31508000C9004F14058002807D1502080F31188BFF38B
S31508000CA04F8FBFF36F8FFEE7DFF8B416142202FBEF
S31508000CB004F211440800416849684160416810F12E
S31508000CC00802914202D14168496841604068C0689B
S31508000CD0DFF894160860DFF89006006801F0D0FF88
S31508000CE0002809D0DFF880060068C26ADFF87806AF
S31508000CF00168372001F059F831BD0000B4D300204F
S31508000D0038B504000D00002C07D1502080F3118857
S31508000D10BFF34F8FBFF36F8FFEE7DFF84C0600680F
S31508000D2010F11801200000F030FD0121280000F024
S31508000D3021FB31BDB0D4002070B504000D001600AB
S31508000D40002C07D1502080F31188BFF34F8FBFF3D3
S31508000D506F8FFEE7DFF81006006810F11801200013
S31508000D6000F007FD002E02D05FF0FF3005000648B0
S31508000D7000682918792000F0E5FF3100280000F006
S31508000D80F9FA70BD04ED00E08CD4002070B50400BB
S31508000D90E068C0680500002D07D1502080F311884F
S31508000DA0BFF34F8FBFF36F8FFEE715F1180000F002
S31508000DB009FDDFF8B805006800281AD1281D00F0DB
S31508000DC001FD2900302000F0BDFFDFF8900500681E
S31508000DD00121EA6A91400843DFF880150860291D59
S31508000DE0DFF87C05EA6A14235A43104400F0C1FC74
S31508000DF005E015F11801DFF8580400F0BAFCDFF831
S31508000E0068050068C06AE96A884206D201200600B9
S31508000E100120DFF85015086001E0002006003000C8
S31508000E2070BD00007CD4002080D40020C8D30020E8
S31508000E30002807D1502181F31188BFF34F8FBFF3E4
S31508000E406F8FFEE7DFF8081509680160DFF8A81557
S31508000E50096841607047F8B504000D00002C07D1F9
S31508000E60502080F31188BFF34F8FBFF36F8FFEE7D3
S31508000E70002D07D1502080F31188BFF34F8FBFF3A1
S31508000E806F8FFEE700F041FDDFF8E4040768286885
S31508000E9010F1010F02D1002006001DE0DFF8B004B2
S31508000EA000682168884205D06068874202D301201D
S31508000EB0060011E06068381A296888420AD228684C
S31508000EC0C01B6168081828602000FFF7B1FF0020E2
S31508000ED0060001E00120060000F034FD3000F2BDF6
S31508000EE00120DFF8801408607047000010B5040080
S31508000EF000F03CF8DFF8680400680228F8D35FF0D1
S31508000F008050DFF8F8140860BFF34F8FBFF36F8F78
S31508000F10EEE710B500200400082C09D2DFF84004DB
S31508000F20142101FB04F1084400F011FC641CF3E7EA
S31508000F30DFF8CC0400F00BFCDFF8C80400F007FC6F
S31508000F40C34800F004FCDFF8C00400F000FCDFF83A
S31508000F50BC0400F0FCFBDFF8A804DFF8B414086052
S31508000F60DFF8A004DFF8AC14086010BD38B5DFF868
S31508000F70A804006800282BD0FFF77BFCDFF888045C
S31508000F800068002801D1012400E00024FFF779FC5D
S31508000F90002CECD100F0B9FCDFF86C04C068C0681E
S31508000FA00500281D00F00EFCDFF870040068401EDE
S31508000FB0DFF868140860DFF860040068401EDFF890
S31508000FC05814086000F0BEFC280000F08CF8CEE744
S31508000FD031BD00002DE9F04104000D0016001F0088
S31508000FE0002C04D1DFF83804D0F8008000E0A046D1
S31508000FF0C5F8008018F134006860D8F82C0028611C
S31508001000D8F83000E861D8F84000A860287B0328A3
S3150800101009D1FFF72EFCD8F82800002801D00220B5
S315080010202873FFF72EFCD8F848006861D8F85000F6
S31508001030A861FFB2052F01D02F7303E02000FFF748
S3150800104082FB2873002E05D0D8F8300000F040F84F
S31508001050288401E000202884BDE8F0812DE9F843C2
S3150800106004000D0016005FF00009286800282CD03F
S315080010702800416849684160416810F108029142B8
S3150800108002D14168496841604068C06880462800C6
S31508001090416849684160416810F10802914202D1ED
S315080010A04168496841604068C06807003300DBB2A0
S315080010B00122242000FB09F004EB00013800FFF7A9
S315080010C089FF19F101094745E1D14846BDE8F28390
S315080010D0010000200A78A52A02D1491C401CF9E71C
S315080010E0800880B2704710B5040094F859000028AB
S315080010F006D1206B00F037FA200000F034FA13E02E
S3150800110094F85900012803D1200000F02CFA0BE0CE
S3150800111094F85900022807D0502080F31188BFF3AD
S315080011204F8FBFF36F8FFEE710BDDFF8E412096833
S315080011300968002904D15FF0FF31464A116008E0CA
S31508001140DFF8CC120968C968C96808004168414ACD
S3150800115011607047DFF8C812096808007047DFF8A1
S31508001160C4120968002902D10121080009E0DFF844
S31508001170B8120968002902D10221080001E00021FD
S315080011800800704728C20008ACD4002038B504000F
S315080011902500002C5AD0E86ADFF884120968C96A63
S315080011A0884253D2A869002806D4DFF8740200687A
S315080011B0C06AD0F10800A8616869DFF8A411EA6A74
S315080011C014235A431144884233D1281D00F0FAFAF1
S315080011D0002811D1DFF88801E96A142251434058E2
S315080011E0002809D1DFF8740100680121EA6A9140F4
S315080011F08843DFF868110860DFF824020068C06ACF
S31508001200E8622900302000F09DFDDFF850010068F3
S315080012100121EA6A91400843DFF840110860291D58
S31508001220DFF83C01EA6A14235A43104400F0A1FA95
S3150800123004E0DFF8EC010068C06AE862DFF8E00164
S315080012400068C26A2900052000F0AFFD31BD000024
S31508001250A0D30020A8D4002070B5040025000026DD
S31508001260002C5CD0DFF800010068854207D05020CA
S3150800127080F31188BFF34F8FBFF36F8FFEE7E86CDB
S31508001280002807D1502080F31188BFF34F8FBFF392
S315080012906F8FFEE7E86C401EE864E86AA96C88422E
S315080012A03DD0E86C00283AD1281D00F08BFA0028BA
S315080012B011D1DFF87801E96A142251434058002811
S315080012C009D1DFF8980000680121EA6A914088434D
S315080012D0DFF888100860AA6C2900062000F065FD72
S315080012E0A86CE862E86AD0F10800A86129003020F5
S315080012F000F028FDDFF8640000680121EA6A9140E1
S315080013000843DFF858100860291DDFF82001EA6A4B
S3150800131014235A43104400F02CFA0120060030002A
S3150800132070BD000098D40020DFF8F400006800289B
S3150800133005D0DFF8EC000068C16C491CC164DFF811
S31508001340E0000068704700009CD40020F4D4002018
S31508001350A0D40020B8D40020B4D4002090D4002013
S3150800136038CF00209CD4002078D40020B0D40020A8
S315080013708CD40020F8B504000D001F4807682848DB
S315080013800068001D00F01EFA00280BD124480068EA
S31508001390274909680122C06A12FA00F031EA0000FA
S315080013A02349086014F1010F08D1002D06D01C4806
S315080013B00068011D154800F0DCF91BE0E01906007D
S315080013C0174800684660BE4207D215480068011DE6
S315080013D01048006800F0D9F90CE011480068011DB2
S315080013E00B48006800F0D1F912480068864201D21D
S315080013F010480660F1BD00008CD4002004ED00E022
S3150800140078D300208CD30020B4D30020C8D3002082
S315080014107CD4002080D4002084D4002088D40020E6
S3150800142078D4002094D40020B0D4002038CF0020EF
S3150800143090D40020A8D400202DE9F04104005FF0E4
S315080014400008FFF716FAA1480068002801D100F045
S31508001450D3F89F48006804426AD1002C15D09D48ED
S315080014600068041914F0070F0FD014F1080014F0DF
S315080014700701441A14F0070F07D0502080F311888B
S31508001480BFF34F8FBFF36F8FFEE7002C50D0924803
S315080014900068A0424CD391480600904800680500B1
S315080014A06868A04205D22868002802D02E002D6858
S315080014B0F6E78648006885423AD030688549096863
S315080014C00844804628683060824800684000696899
S315080014D0091B884215D205EB0400070017F0070020
S315080014E0002807D0502080F31188BFF34F8FBFF331
S315080014F06F8FFEE76868001B78606C60380000F044
S31508001500B2F8754800686968401A734908607248F5
S31508001510006873490968884203D26F4800687049B1
S31508001520086068686A490968084368600020286096
S3150800153022004146382000F038FCFFF7A2F9B8F13E
S31508001540000F01D101F06EFB18F00700002807D044
S31508001550502080F31188BFF34F8FBFF36F8FFEE7DC
S315080015604046BDE8F08170B504002600002C3CD04A
S315080015705848006840420644350068685449096876
S31508001580084207D1502080F31188BFF34F8FBFF36D
S315080015906F8FFEE72868002807D0502080F311884F
S315080015A0BFF34F8FBFF36F8FFEE768684849096836
S315080015B008421AD02868002817D16868444909687B
S315080015C088436860FFF755F9434800686968081852
S315080015D041490860686842422100392000F0E5FB6D
S315080015E0280000F040F8FFF74CF970BD3A4800684B
S315080015F070473B480068704730B44FF44043394C55
S31508001600220012F0070F05D0D21DD208D2009B1A6D
S31508001610344CE3181100314C216000242F4D6C60C6
S315080016205C1822002B4C2468121BD208D200274CC7
S3150800163022600024254D2D686C600024234D2D68FA
S315080016402C600800141A4460204C2468046044681E
S31508001650234D2C604468204D2C605FF000441C4DDF
S315080016602C6030BC704710B41C4B1A0013688342B8
S3150800167001D21268FAE7110053680B44834204D179
S3150800168053684468E31853601000010043680B442C
S315080016901468A34211D113680C4C2468A34208D0DD
S315080016A0436814686468E318436013681B6803603A
S315080016B005E0064B1B68036001E01368036082427D
S315080016C000D0106010BC70470000000058D40020FD
S315080016D064D4002060C200085CD400201CD400201A
S315080016E060D40020A800002062F30F2262F31F4294
S315080016F0401810F0030308D0C91A1FD3DB0748BFE8
S3150800170000F8012D28BF20F8022D130030B4144626
S315080017101546103928BF20E93C00FAD8490728BFE2
S3150800172020E90C0048BF40F8042D890028BF20F89E
S31508001730022D48BF00F8012D30BC7047C91818BFE4
S3150800174000F8012DCB0728BF00F8012D704710F1CE
S31508001750080141605FF0FF31816010F10801C16046
S3150800176010F1080101610021016070470021016143
S31508001770704742684A6093688B60936859609160C5
S31508001780086103685B1C0360704710B40B6813F1AB
S31508001790010F02D10469220008E010F108042200B2
S315080017A054682468A34201D35268F9E754684C6028
S315080017B04C68A1608A60516008610468641C046012
S315080017C010BC7047010008698A684B689A604A68C5
S315080017D08B685A6042688A4201D18A684260002250
S315080017E00A610268521E026000687047001F5FF0B7
S315080017F080730360001F4B085B000360001F0FF235
S315080018001503036014380260001F7FF002030360AB
S31508001810203870477C48006810F1010F07D0502027
S3150800182080F31188BFF34F8FBFF36F8FFEE7502009
S3150800183080F31188BFF34F8FBFF36F8FFEE700B5B4
S3150800184083B0724800687249884207D1502080F3F5
S315080018501188BFF34F8FBFF36F8FFEE76B480068A1
S315080018606C49884207D1502080F31188BFF34F8F07
S31508001870BFF36F8FFEE7684801780191FF21017079
S3150800188001788DF800109DF8001011F05001634A98
S3150800189011700721624A11609DF8001009060AD5E1
S315080018A05F490968491E5E4A11609DF800104900A3
S315080018B08DF80010F0E75A4909680902584A11607C
S315080018C05749096811F4E061554A11600199017098
S315080018D05448006850F4700052490860514800683E
S315080018E050F070404F49086000F059F8002046490A
S315080018F0086001F0D3FA4C48006850F040404A4965
S31508001900086001F0BFFA00200EBD502080F3118850
S31508001910BFF34F8FBFF36F8F3B480068401C3A49AF
S3150800192008603948006801280BD14048006800065D
S3150800193007D0502080F31188BFF34F8FBFF36F8F06
S31508001940FEE7704730480068002807D1502080F32A
S315080019501188BFF34F8FBFF36F8FFEE72A480068E1
S31508001960401E2949086028480068002802D100203E
S3150800197080F31188704780B5502080F31188BFF333
S315080019804F8FBFF36F8FFFF769F8002803D05FF01A
S31508001990805026490860002080F3118801BD24483C
S315080019A000684FF47A71B0FBF1F0401E21490860D7
S315080019B00720214908607047EFF3058210001028B8
S315080019C011D31E4A1268125C11000A00134B1B78C9
S315080019D0D2B29A4207D2502282F31188BFF34F8FB0
S315080019E0BFF36F8FFEE70E4A1268154B1B6813F498
S315080019F0E0639A4207D2502282F31188BFF34F8FD1
S31508001A00BFF36F8FFEE770478C00002000ED00E003
S31508001A1071C20F4170C20F4100E400E035D50020C5
S31508001A2068D4002020ED00E034EF00E004ED00E08B
S31508001A309000002014E000E010E000E064C2000816
S31508001A400CED00E010B504002100200000F0E5FAD6
S31508001A50230022000321012000F026FA200010BDF1
S31508001A600CB42DE9F84304000D0000265FF00008C9
S31508001A705FF000090020814615F80900002802D009
S31508001A8019F10109F8E7B9F1350F01DB3420814670
S31508001A904E450CDAA85D252807D105EB06004078E7
S31508001AA0252801D018F10108761C761CF0E708A84D
S31508001AB00700002C09D000972B00220018F191018D
S31508001AC089B2404600F003FA08E000972B0022008E
S31508001AD018F1900189B2404600F0F9F9BDE8F10322
S31508001AE05DF80CFB70B5040001F0C6F80600EFF3CC
S31508001AF010800500012080F31088DFF8DC060460FA
S31508001B00002E01D102200600DFF8CC060068002866
S31508001B1023D001F00AF90020DFF8C01608605FF04C
S31508001B20FF30DFF8B016087000F070F800F01AF809
S31508001B3000F043F8DFF8A8060368581CDFF8A0167B
S31508001B4008603200DFF89C060168012000F06AF997
S31508001B5000F035FB00F08AF801E001F0E7F885F3BC
S31508001B60108870BDF0B589B000240025EFF3108009
S31508001B700600012080F31088DFF85C06006800285C
S31508001B8017D000200400B4F5707F12D26F460020EB
S31508001B900500202D06D2DFF850062919405C785535
S31508001BA06D1CF6E720223900002001F0F9F92034EF
S31508001BB0E9E786F3108809B0F0BDF0B583B00024D4
S31508001BC00025EFF310800600012080F31088DFF867
S31508001BD008060068002816D000200400C82C12D277
S31508001BE06F4600200500082D06D2DFF800062919E1
S31508001BF0405C78556D1CF6E708223900002001F094
S31508001C00CFF90834EAE786F31088F7BD30B585B012
S31508001C10EFF310800400012080F31088DFF8B80580
S31508001C20006800281ED06D46002D1BD0DFF8C005C1
S31508001C3000682860DFF8BC050088A88041F6A12066
S31508001C40E8800020A860A868A8602020A8811E2037
S31508001C50E881082028821920688214222900002099
S31508001C6001F09EF984F3108805B030BD10B5EFF386
S31508001C7010800400012080F31088DFF85C050068F6
S31508001C8000285CD0DFF870050068002809D0DFF866
S31508001C9068050268DFF86415DFF864050068FFF771
S31508001CA0DFFEDFF860050068002810D0DFF854056D
S31508001CB000681A280BD3DFF84C050068B0F1190242
S31508001CC0DFF84415DFF838050068FFF7C9FEDFF8C6
S31508001CD03C050068002806D0DFF83415DFF8200533
S31508001CE00068FFF7BDFEDFF82C050068002809D05C
S31508001CF0DFF820050268DFF82015DFF8040500681C
S31508001D00FFF7AEFEDFF814050068012806D016D3E3
S31508001D10032805D003D304280AD010E00FE00EE00C
S31508001D20DFF8FC14DFF8D8040068FFF799FE06E030
S31508001D30DFF8F014DFF8C8040068FFF791FE84F3B3
S31508001D40108810BDFEB504000D00A4B2B4F5805F7E
S31508001D5003DB012000F017FA26E0EFF310800600F7
S31508001D60012080F31088DFF870040068002819D075
S31508001D70DFF868040068401CDFF8601408606F46E6
S31508001D80002F0FD054F480503880DFF850040068D4
S31508001D90788000F00BFA7860BD600C2239000020CC
S31508001DA001F0FEF886F31088F7BD2DE9FF4104001F
S31508001DB00D001600A4B2B4F5805F03DB012000F025
S31508001DC0E2F92DE0EFF310800700012080F3108878
S31508001DD0DFF804040068002820D0DFF80004006853
S31508001DE0401CDFF8F8130860E846B8F1000F15D074
S31508001DF054F40050A8F80000DFF8E0030068A8F8DB
S31508001E00020000F0D3F9C8F80400C8F80850C8F86A
S31508001E100C6010224146002001F0C2F887F31088B2
S31508001E20BDE8FF812DE9F04385B004000D001600DA
S31508001E301F00A4B2B4F5805F03DB012000F0A3F90C
S31508001E402FE0EFF310808046012080F31088DFF83A
S31508001E5088030068002822D0DFF880030068401C49
S31508001E60DFF878130860E946B9F1000F17D054F483
S31508001E704050A9F80000DFF864030068A9F80200DA
S31508001E8000F094F9C9F80400C9F80850C9F80C60BC
S31508001E90C9F8107014224946002001F081F888F329
S31508001EA0108805B0BDE8F08308B4F0B582B0040028
S31508001EB00D00160007A80700009733000022290026
S31508001EC089B2200000F003F8F3BC5DF808FB2DE9A1
S31508001ED0F24F86B0814614001D00109EBDF818000A
S31508001EE0B0F5805F03DB012000F04DF992E0002099
S31508001EF080460020804615F80800002802D018F110
S31508001F000108F8E718F10400042190FBF1F00390AA
S31508001F10002C01D019F10109039819EB0000009073
S31508001F200098102811DB00980F388000DFF8E412BB
S31508001F300968814202D2DFF8DC1208600F2100919D
S31508001F405FEA8901D1F13C018846EFF310800490DD
S31508001F50012080F31088DFF880020068002856D038
S31508001F600098800008300290DFF870020068401C74
S31508001F70DFF868120860029801F052F98246D346E3
S31508001F80BBF1000F40D0BDF81800009950EA0130A7
S31508001F90ABF80000DFF844020068ABF8020000F076
S31508001FA005F9CBF804001BF1080001900020070092
S31508001FB04F450EDA002C05D0002F03D1019840F8C2
S31508001FC0274004E03068361D019941F827007F1C38
S31508001FD0EEE700200700474506DA17EB8900584464
S31508001FE0E95D01727F1CF6E75FEA8900D0F13C00E3
S31508001FF0804504DA18EB8900584400210172029AD8
S315080020005946002000F0CCFF504601F012F904981A
S3150800201080F3108807B0BDE8F08FF0B4EFF31087AF
S315080020203E00012787F310887F4F3F683B00002753
S315080020303A007D4F3F68BA4209D26B4F17443C00BD
S315080020402768874201D1130001E02032F1E7B3F592
S31508002050707F29D2644FF850634F1F443F1D3D00DF
S3150800206000273A00192A06D28F5CAF548F5C002FDE
S3150800207001D0521CF6E78F5C002F03D0802A01D2CC
S31508002080521CF8E75F4F3F68974201D25D4F3A60AE
S31508002090654F3F68BB420ED1634F3F682037DFF874
S315080020A088C1CCF8007006E0534F3F687F1CDFF804
S315080020B048C1CCF8007086F31088F0BC7047F0B4BD
S315080020C0EFF310863500012686F31088574E3668DA
S315080020D0330000263200554E3668B24209D2434EC6
S315080020E0164434002668864201D1130001E00832FE
S315080020F0F1E7C82B0ED23D4EF0503C4E1E4471609F
S315080021004A4E3668B3420AD1484E36680836474FB3
S315080021103E6004E03D4E3668761C3C4F3E6085F3D3
S315080021201088F0BC704701004FF6FF700A78801AD5
S315080021304A78801A8A78801ACA78801A0A79801AA0
S315080021404A79821ACB79100080B2000AC0B283425B
S3150800215001D000200CE088791300DBB2984201D048
S31508002160002005E00878022801DB002000E00120B5
S31508002170704710B504002078012803D16078FFF76E
S31508002180B1FCFFE710BD10B504002448006800281C
S315080021900BD122480460214802682549184800687E
S315080021A0FFF75EFC0020FFF79DFC10BD0D48006898
S315080021B02049096821F07F4111EB0060704780B51E
S315080021C004234FF47A721C4801680220FFF72AFE9E
S315080021D001BD0000A400002008D500200CD5002071
S315080021E004D50020F4D40020A8C4002018CD00206F
S315080021F0940000209E00002010D500202CBF000867
S31508002200DCD4002018D500205CBF000814D50020B7
S3150800221004BE00081CD5002038BE000800D50020E2
S3150800222088C00008E8BF0008F8D40020FCD40020C5
S31508002230C4C0000818E000E0900000202DE9F04135
S3150800224004002500DFF894020068D0F5E856002758
S3150800225015F0070F0FD015F1080015F00701451AFC
S3150800226015F0070F07D0502080F31188BFF34F8F62
S31508002270BFF36F8FFEE75FEA9508464504D2200054
S31508002280FFF7DAF807000FE0DFF85402DFF84C1220
S31508002290096800EB81000700DFF84002006818EBC8
S315080022A00000DFF8381208603800BDE8F08170B524
S315080022B004000D0016005C20FFF7C0FF2060822096
S315080022C030604FF40270FFF7B9FF286070BD70B533
S315080022D004000D0016005C20FFF7B0FF20604FF4E5
S315080022E0827030604FF48260FFF7A8FF286070BDE7
S315080022F02DE9FE4F04000D0016001F005C20FFF7B5
S315080023009DFF80463000C0B200F029F98000FFF733
S3150800231095FF81463000C0B200F030F982463000A1
S31508002320C0B200F01CF983463000C0B200F008F9CC
S315080023300100CDF80880CDF80490CDF800A03B0048
S315080023401FFA8BFB5A462800FEF75AF82060012030
S31508002350BDE8FE8F2DE9F04782B004000D00160097
S315080023601F00DDF82880DDF82C90FFB2BA46CDF8BC
S315080023700090434652463100280000F091F920604B
S315080023802068002807D1502080F31188BFF34F8FAB
S31508002390BFF36F8FFEE7BDE8F38710B582B0040080
S315080023A0FEF7EDFA0021009100230200012120002A
S315080023B000F0C5F913BD1CB5040000200190FEF716
S315080023C0E3FA0021009101AB02000621200000F08B
S315080023D0B6F9019800280AD00198002807D05FF0BE
S315080023E0805040490860BFF34F8FBFF36F8F13BD0E
S315080023F010B582B00400FEF7C2FA0021009100234E
S3150800240002000221200000F09AF913BD2DE9F041DF
S3150800241082B004000D0016005020FFF70FFF0700DA
S315080024202800C0B200F0F4F87043FFF707FF8046B3
S315080024302800C0B200F0ECF8002100913B004246AB
S31508002440310000F043FF20602068002807D15020A3
S3150800245080F31188BFF34F8FBFF36F8FFEE7280015
S31508002460C0B200F0C6F80100200001F0F6FCBDE895
S31508002470F381F8B504000D0016000027002332008A
S315080024802900200000F0AFFF012801D10120070034
S315080024903800C0B2F2BD70B582B004000D00002647
S315080024A00020009000236A462900200001F0FFF86A
S315080024B0012801D101200600009800280AD00098BA
S315080024C0002807D05FF0805006490860BFF34F8F99
S315080024D0BFF36F8F3000C0B276BD000004740010E1
S315080024E00000001004ED00E0F8B504000025002601
S315080024F0002701F0EFFC010000200700FFB2182FAB
S3150800250010DAEDB2002D0DD1FFB21C2000FB07F04A
S31508002510085C2200D2B2904202D1012005003E009A
S315080025207F1CEBE7EDB2002D07D1502080F3118810
S31508002530BFF34F8FBFF36F8FFEE73000C0B2F2BD17
S3150800254038B5040001F0C6FC05002000C0B2FFF74C
S31508002550CBFFC0B21C2148432844401C32BD38B5C5
S31508002560040001F0B7FC05002000C0B2FFF7BCFF6D
S31508002570C0B21C2148432844406932BD38B504001E
S3150800258001F0A8FC05002000C0B2FFF7ADFFC0B2FD
S315080025901C2148432844806932BDF8B5040000254B
S315080025A00026002701F09AFC010000200700FFB270
S315080025B01B2F10DAEDB2002D0DD1FFB2142000FB4F
S315080025C007F0085C2200D2B2904202D10120050031
S315080025D03E007F1CEBE7EDB2002D07D1502080F3BB
S315080025E01188BFF34F8FBFF36F8FFEE73000C0B27D
S315080025F0F2BD38B5040001F071FC05002000C0B238
S31508002600FFF7CBFFC0B2142148432844401C32BD13
S3150800261038B5040001F062FC05002000C0B2FFF7DF
S31508002620BCFFC0B2142148432844006932BD0100EA
S3150800263010B586B0002400F0AAFADFF8A4050068F1
S31508002640002820D0002004900020039005AA03A9A2
S3150800265004A8FFF73CFE049802900398019007200F
S3150800266000900023059ADFF87C150FF27D20FDF710
S31508002670C7FEDFF874150860DFF86C0500680028E7
S3150800268001D001200400002C07D1502080F31188C6
S31508002690BFF34F8FBFF36F8FFEE7200006B010BD64
S315080026A02DE9F04383B004000D0016001F00DDF885
S315080026B028803020FEF7C0FE8146B9F1000F0CD005
S315080026C0CDF80490CDF800803B00320029002000A8
S315080026D000F006F8002089F82C004846BDE8FE837D
S315080026E02DE9F84304000D0016001F00DDF82080D0
S315080026F0DDF82490002D07D1502080F31188BFF310
S315080027004F8FBFF36F8FFEE7B9F1000F15D000F0BA
S315080027103EFAC9F80040C9F81850C9F81C60C9F84B
S315080027202070C9F8248019F10400FFF71FF8D9F8BA
S31508002730182049461420FFF738FBBDE8F1832DE938
S31508002740FE4304000D0016001F00DDF828805FF028
S315080027500009002C07D1502080F31188BFF34F8F52
S31508002760BFF36F8FFEE7DFF878040068002800F0F3
S315080027708A80009501960294062D17DAFEF7EFFC7B
S31508002780022809D1002342466946DFF85404006846
S3150800279000F029FE814612E0002300226946DFF890
S315080027A04004006800F01FFE814608E000233A0056
S315080027B06946DFF82C04006800F079FF8146012D90
S315080027C00DD060D3032D0BD022D3052D15D008D3F9
S315080027D0072D35D028D3092D4AD03DD353E052E0F2
S315080027E051E0B9F1010F01D1A32000E0AB2032007E
S315080027F0210080B2FFF7D9FA45E0B9F1010F01D1FE
S31508002800242000E04820210080B2FFF79BFA3AE036
S31508002810B9F1010F01D1A12000E0A9203200210061
S3150800282080B2FFF7C2FA2EE0B9F1010F01D1A42058
S3150800283000E0AC203200210080B2FFF7B6FA22E0B1
S31508002840B9F1010F01D1A52000E0AD203200210029
S3150800285080B2FFF7AAFA16E0B9F1010F01D1A62056
S3150800286000E0AE203200210080B2FFF79EFA0AE0AF
S31508002870B9F1010F01D1A72000E0AF2032002100F5
S3150800288080B2FFF792FA4846BDE8FE83F8B5040021
S315080028900D00DFF858030068C068C768381DFEF7E2
S315080028A091FFF86901281BD123002A00B86901198C
S315080028B0380000F089F8002812D000200090002384
S315080028C0220000213800FFF73AFF0600002E07D144
S315080028D0502080F31188BFF34F8FBFF36F8FFEE749
S315080028E03800796A8847F1BD38B50400684600F0B3
S315080028F040F805000099280000F003F800F08CF86D
S31508002900F4E770B582B004000E00FDF7B2FF684622
S3150800291000F046F805000098002827D1002E08D1B7
S31508002920A54206D3FDF7ADFF29002000FFF7AEFF4D
S315080029301EE0002E07D0AE4800680068002801D1C6
S31508002940012600E000263200611BA548006801F058
S315080029509BFAFDF796FF00280AD15FF08050A5493B
S315080029600860BFF34F8FBFF36F8F01E0FDF789FF54
S3150800297073BD01009D4A12681268002A01D101221E
S3150800298000E00022D2B20A600A68002A05D1974AF6
S315080029901268D2681268100001E000221000704721
S315080029A038B50400FDF7EBFF05009348006885423B
S315080029B004D200F0A4F80120206001E00020206085
S315080029C08D480560280032BD2DE9F04104000D0050
S315080029D016001F005FF0000865602461AE420CD344
S315080029E0F01BA169884202D30120804611E0211D0F
S315080029F07F480068FEF7C9FE0BE0BE4204D2BD421E
S31508002A0002D30120804604E0211D78480068FEF7BD
S31508002A10BCFE4046BDE8F08170B586B000230022B2
S31508002A2001A96F48006800F09BFF002865D001984F
S31508002A300028F3D4039804006069002802D0201DFA
S31508002A40FEF7C0FE04A8FFF7ABFF060001980028B2
S31508002A500ED002280CD00BD3042830D02ED306284B
S31508002A6006D041D3082829D002D3092827D043E025
S31508002A70029B32000298A16909182000FFF7A4FFFB
S31508002A8000281AD02000616A8847E069012814D115
S31508002A900020009000230298A1690A18002120004E
S31508002AA0FFF74DFE0500002D07D1502080F3118851
S31508002AB0BFF34F8FBFF36F8FFEE7AFE7AEE702981E
S31508002AC0A061A069002807D1502080F31188BFF3C0
S31508002AD04F8FBFF36F8FFEE733003200A06981196D
S31508002AE02000FFF771FF99E794F82C00002802D11F
S31508002AF02000FEF738FD91E790E706B070BD2DE996
S31508002B00F04182B0394800680068002834D0374858
S31508002B100068C0680068040034480068C068C06877
S31508002B200700381DFEF74EFE3800796A8847F869AF
S31508002B300128E7D1B86900190500AC4207D27D60C3
S31508002B403F61391D29480068FEF71FFEDAE70020B5
S31508002B5000900023220000213800FFF7F0FD804690
S31508002B60B8F1000F07D1502080F31188BFF34F8FBB
S31508002B70BFF36F8FFEE7C5E71C48006806001C48D0
S31508002B8000681A4908601A480660BDE8F38180B5EE
S31508002B90FEF7BBFE1248006800281ED11748FEF74C
S31508002BA0D6FD1748FEF7D3FD1448104908601448A7
S31508002BB00F49086000200090124B134A0C210E2082
S31508002BC000F084FB0649086005480068002804D020
S31508002BD00E490348006801F040F9FEF7B3FE01BD4F
S31508002BE0C4D4002030C20008C8D40020BCD40020B9
S31508002BF0C0D4002004ED00E0CCD40020DCD30020B3
S31508002C00F0D30020C8D0002090CE002038C200089B
S31508002C10FEE77047502282F31188BFF34F8FBFF348
S31508002C206F8FFEE7502080F31188BFF34F8FBFF3F5
S31508002C306F8FFEE70D48006850F080700B490860FA
S31508002C400A48006800280CD009480068800108D4A2
S31508002C500020084908600648006850F00100044949
S31508002C60086070470348006870470000FCED00E004
S31508002C70001000E0041000E080B5FEF76BFA02BD14
S31508002C8001004E480068884203D04C480160012084
S31508002C9000E00020704780B549480068494909683E
S31508002CA088420AD247480268474948480068FEF7FA
S31508002CB0D7FE4448006842490860454800684549C7
S31508002CC0096888420AD24348026843493F4800686F
S31508002CD0FEF7C6FE3F4800683D4908603F48006861
S31508002CE03F49096888420ED23D4800681A2806D32B
S31508002CF03B4802683B4935480068FEF7B1FE38484C
S31508002D0000683649086038480068384909688842C2
S31508002D100AD23648026836492C480068FEF7A0FEF3
S31508002D20324800683049086001BD7047704730B5C1
S31508002D3083B004000025002005000822694600200B
S31508002D4000F0BBF80500002D09D0082D07D168460C
S31508002D50FFF7E9F9002802D06846FFF70AFA0020CB
S31508002D600500002DFBD1FFF796FF0A20FDF7C0FCF2
S31508002D70E1E700B583B00220009004231D480268ED
S31508002D801D49002000F0CFF90020009004231B48BD
S31508002D9002681B49002000F003FA1A48FEF752FEA3
S31508002DA00A490860184801900120009000234FF452
S31508002DB0827213491548FDF76AFB07BDF0D4002057
S31508002DC0E0D4002010D500209CBE0008DCD40020EA
S31508002DD0E4D4002014D50020CCBE0008E8D4002096
S31508002DE018D50020FCBE0008ECD400201CD5002015
S31508002DF0D0BD0008D4D4002040C20008D8D4002092
S31508002E0048C2000848C10008D0D400202F2D000869
S31508002E10EFF30980BFF36F8F244B1A681EF0100F6B
S31508002E2008BF20ED108A20E9F04F106008B44FF073
S31508002E30500080F31188BFF34F8FBFF36F8FFDF7F4
S31508002E40CFFE4FF0000080F3118808BC19680868A7
S31508002E50B0E8F04F1EF0100F08BFB0EC108A80F3F0
S31508002E600988BFF36F8F7047104B19680868B0E878
S31508002E70F04F80F30988BFF36F8F4FF0000080F39F
S31508002E80118870470A480068006880F3088862B6A7
S31508002E9061B6BFF34F8FBFF36F8F00DFDFF8140003
S31508002EA0016841F4700101607047000078D4002081
S31508002EB008ED00E088ED00E070472DE9F84F0400C2
S31508002EC08B461700FFF7F8FFDFF85003182101FBC0
S31508002ED004F10844806D8046DFF84003182101FBA1
S31508002EE004F10844406D05000020060045452CDA2B
S31508002EF0DFF82803182101FB04F10844006DB0EB44
S31508002F0008008146B94500DBB946DFF810031821E9
S31508002F1001FB04F10844C06C00EB080A4A46514616
S31508002F20584600F0DFFF19EB0606CB44B7EB090756
S31508002F3019EB0808DFF8E402182101FB04F108443C
S31508002F40006D804501D100208046B5EB080081461A
S31508002F50B94500DBB946B9F1010F14DBDFF8BC024D
S31508002F60182101FB04F10844C06C00EB080A4A4624
S31508002F705146584600F0B6FF19EB0606CB44B7EBA8
S31508002F80090719EB0808002E07D0DFF89002182168
S31508002F9001FB04F10844C0F858803000BDE8F28F00
S31508002FA02DE9F84F04000D001600FFF785FFDFF83E
S31508002FB06C02182101FB04F1084490F82C0010F06B
S31508002FC0030002282CD0DFF85402182101FB04F173
S31508002FD00844806A8046DFF84402182101FB04F1A0
S31508002FE00844406AB8EB0000401E8146B9F1000F5C
S31508002FF007D58A48182101FB04F10844006A10EB3A
S315080030000909B1450CDA8548182101FB04F1084481
S3150800301090F82C0010F0030F01D1002081E04E46F5
S31508003020002E01D100207CE0002007007B481821F3
S3150800303001FB04F10844806A80467848182101FBA0
S3150800304004F10844406AB8EB0000401E8146B9F115
S31508003050000F07D57148182101FB04F10844006ADE
S3150800306010EB09096D48182101FB04F10844006AB0
S315080030706A49182202FB04F21144496A401A81453A
S315080030800DDB6648182101FB04F10844006A634910
S31508003090182202FB04F21144496AB0EB0109B14552
S315080030A000DBB1465D48182101FB04F10844406A7B
S315080030B0AA465A49182202FB04F21144C96901EBCF
S315080030C0000B4A465146584600F00CFF19EB070715
S315080030D04D44B6EB09065148182101FB04F1084492
S315080030E0406A19EB00004D49182202FB04F211440C
S315080030F048624A48182101FB04F10844406A4749D6
S31508003100182202FB04F21144096A884206D10020FB
S315080031104249182202FB04F211444862002E85D166
S315080031203800BDE8F28F2DE9F04104000D001600C5
S315080031301F00DDF81880FFF7BFFE38480069844293
S315080031402AD2002C1FD03548182101FB04F1084467
S3150800315085613248182101FB04F10844C6612F48ED
S31508003160182101FB04F10844076200202B491822A4
S3150800317002FB04F21144886200202849182202FB47
S3150800318004F2114448622548182101FB04F1084459
S31508003190C0F82C80002001E05FF0FF30BDE8F08128
S315080031A02DE9F04104000D0016001F00DDF8188017
S315080031B0FFF782FE1948406984422AD2002C1FD0A4
S315080031C01648182101FB04F10844856413481821A0
S315080031D001FB04F10844C6641048182101FB04F1F8
S315080031E00844076500200D49182202FB04F2114421
S315080031F0886500200949182202FB04F21144486533
S315080032000648182101FB04F10844C0F85C80002038
S3150800321001E05FF0FF30BDE8F0810000000000200B
S3150800322080B500F09BFE009008B900F0EFFE00980C
S3150800323002BD00F0EFBE12DB70B504000D002600DB
S31508003240002E07D1502080F31188BFF34F8FBFF3AC
S315080032506F8FFEE7FEF759FB3068F16B326C51430E
S31508003260084470600020B0633068B0603068F16B65
S31508003270491E326C51430844F0605FF0FF3086F80F
S3150800328044005FF0FF3086F84500002D12D1306902
S31508003290002817D016F11000FDF778FD002811D088
S315080032A05FF08050DFF8301A0860BFF34F8FBFF326
S315080032B06F8F07E016F11000FEF749FA16F12400A1
S315080032C0FEF745FAFEF73EFB012070BD2DE9F843EF
S315080032D005000E0017009846089C002D07D15020BF
S315080032E080F31188BFF34F8FBFF36F8FFEE7B8F1F6
S315080032F0000F07D1502080F31188BFF34F8FBFF31B
S315080033006F8FFEE7002F01D0002E01D0012000E0CC
S315080033100020C0B2002807D1502080F31188BFF3DF
S315080033204F8FBFF36F8FFEE7002F01D1002E01D11B
S31508003330012000E00020C0B2002807D1502080F309
S315080033401188BFF34F8FBFF36F8FFEE750200090B1
S315080033500098502807D0502080F31188BFF34F8F6C
S31508003360BFF36F8FFEE7C146B9F1000F0BD00120FE
S3150800337089F84600CDF800902300DBB23A00310008
S31508003380280000F003F84846BDE8F2832DE9F0412D
S3150800339004000D0016001F00DDF81880002D02D16C
S315080033A0C8F8008001E0C8F80060C8F83C40C8F8D2
S315080033B0405001214046FFF73FFF88F84C7098F8C7
S315080033C04C00002802D0032807D00AE0D8F83C2091
S315080033D041461120FEF7E9FC03E041461220FEF7BC
S315080033E0B1FCBDE8F0812DE9F74304000D001E008D
S315080033F05FF00008A146B9F1000F07D1502080F30D
S315080034001188BFF34F8FBFF36F8FFEE7002D03D1EF
S31508003410D9F84000002801D1012000E00020C0B200
S31508003420002807D1502080F31188BFF34F8FBFF3D0
S315080034306F8FFEE7022E03D1D9F83C00012801D18F
S31508003440012000E00020C0B2002807D1502080F3F8
S315080034501188BFF34F8FBFF36F8FFEE7FDF77FFE2F
S31508003460002802D10298002801D1012000E000209E
S31508003470C0B2002807D1502080F31188BFF34F8FC0
S31508003480BFF36F8FFEE7FEF740FAD9F83800D9F890
S315080034903C10884201D3022E4CD199F84C000028E2
S315080034A006D0022811D018D3042816D00DD318E058
S315080034B0D9F83810002E01D1502000E0C0204A1C4F
S315080034C0494680B2FEF771FC0BE0D9F83800421C79
S315080034D049465120FEF769FC03E049465220FEF7AB
S315080034E031FC32002900484600F0F8FB0700D9F8FD
S315080034F0240000280FD019F12400FDF747FC002806
S3150800350014D05FF08050DFF8D0170860BFF34F8FF4
S31508003510BFF36F8F0AE0002F08D05FF08050DFF806
S31508003520B8170860BFF34F8FBFF36F8FFEF70AFA1D
S315080035300120BAE00298002825D1FEF703FA99F887
S315080035404C00002806D0022810D016D3042814D020
S315080035500CD316E0D9F83820002E01D1532000E00C
S31508003560C120494680B2FEF720FC0AE0D9F8382087
S3150800357049465420FEF719FC03E049465520FEF754
S31508003580E1FB002091E0B8F1000F04D16846FDF791
S315080035904FFC01208046FEF7D5F9FDF76AF9FEF7DC
S315080035A0B4F999F9440010F1010F02D1002089F805
S315080035B0440099F9450010F1010F02D1002089F85D
S315080035C04500FEF7BFF902A96846FDF744FC002846
S315080035D043D1484600F030FC002838D099F84C0012
S315080035E0002806D0022810D016D3042814D00CD3ED
S315080035F016E0D9F83820002E01D1562000E0C22066
S31508003600494680B2FEF7D1FB0AE0D9F83820494688
S315080036105720FEF7CAFB03E049465820FEF792FBFF
S31508003620029919F11000FDF76BFB484600F0BDFB47
S31508003630FDF727F900287FF426AF5FF08050DFF802
S3150800364098160860BFF34F8FBFF36F8F1BE7484686
S3150800365000F0ABFBFDF715F915E7484600F0A5FBAA
S31508003660FDF70FF999F84C00002806D0022810D06B
S3150800367016D3042814D00CD316E0D9F83820002E17
S3150800368001D1532000E0C120494680B2FEF78DFBE8
S315080036900AE0D9F8382049465420FEF786FB03E0AD
S315080036A049465520FEF74EFB0020BDE8FE832DE96E
S315080036B0F84F04000D0016001F00A246BAF1000FCD
S315080036C007D1502080F31188BFF34F8FBFF36F8F58
S315080036D0FEE7002D03D1DAF84000002801D10120C9
S315080036E000E00020C0B2002807D1502080F31188DE
S315080036F0BFF34F8FBFF36F8FFEE7022F03D1DAF8C0
S315080037003C00012801D1012000E00020C0B20028B9
S3150800371007D1502080F31188BFF34F8FBFF36F8F07
S31508003720FEE7FEF749F9EFF311808146502080F352
S315080037301188BFF34F8FBFF36F8FDAF83800DAF8C6
S315080037403C10884201D3022F3DD19AF945B09AF828
S315080037504C00002803D0801E01280DD913E0DAF8A2
S315080037603810002F01D1592000E0C3204A1C5146C9
S3150800377080B2FEF71AFB06E0DAF83800421C51461A
S315080037805A20FEF712FB3A002900504600F0A6FA26
S315080037904FFA8BFB1BF1010F0ED1DAF82400002833
S315080037A00ED01AF12400FDF7F1FA002808D0002EF1
S315080037B006D00120306003E01BF101008AF84500BD
S315080037C0012080461BE09AF84C00002803D0801E92
S315080037D001280CD911E0DAF83820002F01D15C2035
S315080037E000E0C420514680B2FEF7DFFA05E0DAF8B9
S315080037F0382051465D20FEF7D8FA0020804689F326
S3150800380011884046BDE8F28F38B504000D00002245
S315080038102900200000F001F832BD2DE9F84F040018
S315080038200D001600A146B9F1000F07D1502080F30C
S315080038301188BFF34F8FBFF36F8FFEE7D9F84000AB
S31508003840002807D0502080F31188BFF34F8FBFF3AD
S315080038506F8FFEE7D9F80000002803D1D9F80400D5
S31508003860002801D1012000E00020C0B2002807D1BD
S31508003870502080F31188BFF34F8FBFF36F8FFEE799
S31508003880FEF79AF8EFF311808046502080F31188EE
S31508003890BFF34F8FBFF36F8FD9F838A0D9F83C0024
S315080038A082453CD299F945B099F84C00002803D0D6
S315080038B0801E01280DD913E0D9F83810002E01D141
S315080038C0592000E0C3204A1C494680B2FEF76DFA2B
S315080038D006E0D9F83800421C49465A20FEF765FA30
S315080038E01AF10100C9F838004FFA8BFB1BF1010FDA
S315080038F00ED1D9F8240000280ED019F12400FDF7BE
S3150800390045FA002808D0002D06D00120286003E0DB
S315080039101BF1010089F84500012007001BE099F812
S315080039204C00002803D0801E01280CD911E0D9F8D4
S315080039303820002E01D15C2000E0C420494680B220
S31508003940FEF733FA05E0D9F8382049465D20FEF738
S315080039502CFA0020070088F311883800BDE8F28F9A
S315080039602DE9F44783B004000D001E000027A14688
S31508003970B9F1000F07D1502080F31188BFF34F8F9C
S31508003980BFF36F8FFEE7002D03D1D9F8400000285A
S3150800399001D1012000E00020C0B2002807D1502044
S315080039A080F31188BFF34F8FBFF36F8FFEE7FDF7E4
S315080039B0D6FB002802D10398002801D1012000E097
S315080039C00020C0B2002807D1502080F31188BFF329
S315080039D04F8FBFF36F8FFEE7FDF797FFD9F838A033
S315080039E0BAF1000F00F08180D9F80C008046290052
S315080039F0484600F0C2F9002E40D199F84C0000283C
S31508003A0006D002280DD015D3042813D009D316E002
S31508003A10D9F83800431E039A49466020FEF702FA91
S31508003A200DE0D9F83800431E039A49466120FEF78F
S31508003A30F9F904E0039A49466220FEF7B6F9BAF1A5
S31508003A400100C9F83800D9F80000002803D1FDF7AD
S31508003A506BFCC9F80400D9F81000002841D019F108
S31508003A601000FDF793F900283BD05FF080509A4983
S31508003A700860BFF34F8FBFF36F8F32E099F84C00A1
S31508003A80002806D002280CD013D3042811D008D356
S31508003A9013E0D9F83830039A49467020FEF7C2F980
S31508003AA00BE0D9F83830039A49467120FEF7BAF97F
S31508003AB003E049467220FEF745F9C9F80C80D9F8A3
S31508003AC0240000280DD019F12400FDF75FF900281D
S31508003AD007D05FF0805080490860BFF34F8FBFF36F
S31508003AE06F8FFDF72FFF0120F1E00398002832D1F0
S31508003AF0FDF728FF99F84C00002806D0022811D0B7
S31508003B001DD304281BD00DD323E0D9F83830002E56
S31508003B1001D1632000E07320039A494680B2FEF77C
S31508003B2081F916E0D9F83830002E01D1642000E07A
S31508003B307420039A494680B2FEF774F909E0002E0C
S31508003B4001D1652000E07520039A494680B2FEF748
S31508003B502CF90020BBE0002F04D16846FDF768F970
S31508003B6001200700FDF7EEFEFCF783FEFDF7CDFE0C
S31508003B7099F9440010F1010F02D1002089F8440098
S31508003B8099F9450010F1010F02D1002089F8450086
S31508003B90FDF7D8FE03A96846FDF75DF900285BD155
S31508003BA0484600F039F9002850D099F84C0000280A
S31508003BB006D0022811D01DD304281BD00DD323E02C
S31508003BC0D9F83830002E01D1662000E07620039A15
S31508003BD0494680B2FEF726F916E0D9F83830002EA5
S31508003BE001D1672000E07720039A494680B2FEF7A4
S31508003BF019F909E0002E01D1682000E07820039A1F
S31508003C00494680B2FEF7D1F8D9F80000002807D156
S31508003C10FDF77BFED9F80400FDF7B8FAFDF792FE2A
S31508003C20039919F12400FDF76BF8484600F0BDF832
S31508003C30FCF727FE00287FF4CFAE5FF080502649B8
S31508003C400860BFF34F8FBFF36F8FC5E6484600F095
S31508003C50ACF8FCF716FEBFE6484600F0A6F8FCF7F7
S31508003C6010FE484600F0D8F800283FF4B5AE99F89B
S31508003C704C00002806D0022811D01DD304281BD0DA
S31508003C800DD323E0D9F83830002E01D1632000E0A7
S31508003C907320039A494680B2FEF7C4F816E0D9F8AD
S31508003CA03830002E01D1642000E07420039A49467A
S31508003CB080B2FEF7B7F809E0002E01D1652000E0D2
S31508003CC07520039A494680B2FEF76FF8002004B0C3
S31508003CD0BDE8F0870000000004ED00E02DE9F0479C
S31508003CE004000D0016000027A06B8046206C0028F3
S31508003CF009D1206800283AD16068FDF7ADFA0700B7
S31508003D000020606033E0002E13D1D4F84090D4F838
S31508003D1008A04A462900504600F0E4F8A068216C3D
S31508003D200844A060A0686168884220D32068A06023
S31508003D301DE0D4F84090D4F80CA04A462900504615
S31508003D4000F0D0F8E068216C49420844E060E06879
S31508003D502168884204D26068216C49420844E060C0
S31508003D60022E04D1B8F1000F01D0B8F1010818F1FC
S31508003D700100A0633800BDE8F087F8B504000D001F
S31508003D80206C002810D0E068216C0844E060E068E8
S31508003D906168884201D32068E060266CE7683200D3
S31508003DA03900280000F09EF8F1BD70B50400FDF753
S31508003DB0ACFD94F945506DB2012D0CDB606A002804
S31508003DC009D014F12400FCF7E1FF002801D0FDF723
S31508003DD087F86D1EEFE75FF0FF3084F84500FDF7C2
S31508003DE0B1FDFDF792FD94F9446076B2012E0CDB25
S31508003DF02069002809D014F11000FCF7C7FF002835
S31508003E0001D0FDF76DF8761EEFE75FF0FF3084F816
S31508003E104400FDF797FD70BD38B50400FDF775FD44
S31508003E20A06B002802D10120050001E00020050052
S31508003E30FDF788FD280032BD38B50400FDF765FD9D
S31508003E40A06BE16B884202D10120050001E0002049
S31508003E500500FDF777FD280032BD00231A00082A61
S31508003E600ED2084B53F83230002B07D1054B43F8D6
S31508003E703210044B03EBC203586001E0521CEEE714
S31508003E807047000018D10020F8B504000D00160090
S31508003E902700FDF73AFD97F9440010F1010F02D10A
S31508003EA0002087F8440097F9450010F1010F02D168
S31508003EB0002087F84500FDF745FDB86B002805D1B9
S31508003EC03200290017F12400FCF736FF3800FFF707
S31508003ED06CFFF1BD0048704764A0000800487047B1
S31508003EE070A8000862B38B0708D0521E11F8013B70
S31508003EF000F8013B00F024808B07F6D1830740F0D9
S31508003F00208000BF103A07D330B4B1E83810103A11
S31508003F10A0E83810F9D230BC530724BFB1E808101E
S31508003F20A0E8081044BF51F8043B40F8043BD20708
S31508003F3024BF31F8022B20F8022B44BF0B780370FC
S31508003F407047083A07D3B1E80810083A40F8043B26
S31508003F5040F804CBF7D25307E4E7DEDD70B5054633
S31508003F6005F10F00C408C046C046E400A54232D297
S31508003F70082C04D2082402E0083000F04BF8224846
S31508003F80026811000CD1011D0A6802B31368A34226
S31508003F9038BF111DF8D310E01D68A5420DD2191DB2
S31508003FA00B68002BF8D11268011D00E0191D0B687B
S31508003FB093420CD01D68A542F8D361B10D682A68F2
S31508003FC0A2F10803A3420AD26A680A600FE000F069
S31508003FD061F80028D0D1C046C046002070BD2B1914
S31508003FE00B60121B6E685E600B681A602C600968AD
S31508003FF000291DBF4A68002A091D00210160C04624
S31508004000C04605F1080070BD2CD40020012000F040
S3150800401057B8120000B9704738B5A0F108042068EF
S31508004020082833D310F0070F30D1C046C0461848C9
S31508004030416809B18C4203D26160446017E01946B1
S315080040404B680BB1A342FAD30B68CD18AC421BD30D
S31508004050A54204D12268D2180A600C4607E04A68CD
S315080040601AB1236823449A420ED362604C60616891
S3150800407051B12268A3188B4206D100230360086851
S315080040808018206048686060C046C04631BD0000A0
S315080040902CD400200749086808B100207047064854
S315080040A0C008C00008600549C908C900091A0160A6
S315080040B0704700BF28D500200F740010087800103C
S315080040C080B5C046C046024A11001820ABBEFBE7C1
S315080040D02600020010B50400DFF88006844240D0AE
S315080040E0DFF87C0684423CD0DFF87806844238D074
S315080040F0DFF87406844234D0DFF87006844230D084
S31508004100DFF86C0684422CD0DFF86806844228D093
S31508004110DFF86406844224D0DFF86006844220D0A3
S31508004120DFF85C0684421CD0DFF85806844218D0B3
S31508004130DFF85806844214D0DFF85406844210D0BB
S31508004140DFF8500684420CD0DFF84C06844208D0CB
S31508004150DFF84806844204D0C721DFF82C06FEF7AC
S3150800416057FD20684008400020600020206000209D
S3150800417060600020A0600020E0600020206121200F
S315080041806061DFF8D805844204D13D20DFF81016B7
S31508004190086093E0DFF8C805844205D14FF47460DF
S315080041A0DFF8FC15086089E0DFF8B805844205D118
S315080041B05FF47410DFF8E81508607FE0DFF8A805FB
S315080041C0844205D15FF07460DFF8D415086075E0A5
S315080041D0DFF89805844205D1DFF8C805DFF8C81569
S315080041E008606BE0DFF88805844205D1DFF8BC0576
S315080041F0DFF8B415086061E0DFF87805844205D178
S31508004200DFF8AC05DFF8A015086057E0DFF86805A9
S31508004210844205D15FF03D50DFF88C1508604DE00B
S31508004220DFF85805844204D13D20DFF88815086078
S3150800423044E0DFF84C05844205D14FF47460DFF89A
S31508004240741508603AE0DFF83C05844205D15FF44E
S315080042507410DFF86015086030E0DFF83005844236
S3150800426005D15FF07460DFF84C15086026E0DFF8CA
S315080042702005844205D1DFF82C05DFF83C150860D7
S315080042801CE0DFF81005844205D1DFF82005DFF8C9
S315080042902815086012E0DFF80005844205D1DFF82A
S315080042A01005DFF81415086008E0DFF8F00484420A
S315080042B004D15FF03D50DFF80015086010BD70B5F9
S315080042C004000D000026DFF89404844241D0DFF88C
S315080042D0900484423DD0DFF88C04844239D0DFF85C
S315080042E08804844235D0DFF88404844231D0DFF86C
S315080042F0800484422DD0DFF87C04844229D0DFF87C
S315080043007804844225D0DFF87404844221D0DFF88B
S31508004310700484421DD0DFF86C04844219D0DFF89B
S315080043206C04844215D0DFF86804844211D0DFF8A3
S31508004330640484420DD0DFF86004844209D0DFF8B3
S315080043405C04844205D04FF4A271DFF83C04FEF702
S315080043505FFC2868002821D02868B0F1007F1DD0AE
S315080043602868B0F1806F19D02868B0F1C06F15D0F1
S315080043702868B0F1006F11D02868B0F1206F0DD011
S315080043802868B0F1406F09D02868B0F1606F05D091
S3150800439040F24511DFF8F003FEF73AFCE86800281A
S315080043A00BD0E868402808D0E868802805D04FF484
S315080043B0A371DFF8D403FEF72BFC2869002803D085
S315080043C02869B0F5803F05D340F24711DFF8B803F6
S315080043D0FEF71EFC6869B0F5007F08D068690028FA
S315080043E005D04FF4A471DFF8A003FEF711FCA86905
S315080043F0B0F5806F08D0A869002805D040F24911A9
S31508004400DFF88403FEF704FCE86900280DD0E869A4
S31508004410B0F5006F09D0E869B0F5805F05D04FF4B4
S31508004420A571DFF86403FEF7F3FB286A00280DD0B0
S31508004430286AB0F5005F09D0286AB0F5804F05D024
S3150800444040F24B11DFF84003FEF7E2FB686A0028EA
S3150800445009D0686AB0F5807F05D04FF4A671DFF8F9
S315080044602803FEF7D5FBA86A002811D0A86AB0F57C
S31508004470803F0DD0A86AB0F5003F09D0A86AB0F50C
S31508004480403F05D040F24D11DFF8FC02FEF7C0FBB5
S31508004490E86A002808D0E86A042805D04FF4A7710E
S315080044A0DFF8E402FEF7B4FB286B00280ED0286B71
S315080044B001280BD0286B022808D0286B032805D0C2
S315080044C040F24F11DFF8C002FEF7A2FB686B002826
S315080044D011D0686BB0F5000F0DD0686BB0F1807F16
S315080044E009D0686BB0F1C07F05D04FF4A871DFF82A
S315080044F09802FEF78DFBA86B002811D0A86BB0F5C3
S31508004500001F0DD0A86BB0F5800F09D0A86BB0F5C9
S31508004510C00F05D040F25111DFF86C02FEF778FBA8
S3150800452020680600DFF8640506402868E96808433D
S3150800453069690843A9690843E9690843296A084378
S31508004540696A0843A96A0843696B0843A96B084363
S315080045500643266060690600F608F600E86A296BD5
S31508004560084306436661286960606868A060A868B1
S31508004570E06070BD0021016000214160002181607A
S315080045800021C16000210161002141610021816192
S315080045900021C1610021016200214162002181627E
S315080045A00021C1620021016300214163002181636A
S315080045B0704738B504000D00DFF8A00184423FD0EB
S315080045C0DFF89C0184423BD0DFF89801844237D05B
S315080045D0DFF89401844233D0DFF8900184422FD06B
S315080045E0DFF88C0184422BD0DFF88801844227D07B
S315080045F0DFF88401844223D0DFF8800184421FD08B
S31508004600DFF87C0184421BD05E48844218D0DFF86C
S315080046107C01844214D0DFF87801844210D0DFF898
S31508004620740184420CD0DFF87001844208D0DFF8A8
S315080046306C01844204D040F2E1115348FEF7E8FACF
S31508004640EDB2002D07D0EDB2012D04D04FF4F17173
S315080046504D48FEF7DDFAEDB2002D04D0206850F083
S315080046600100206003E0206840084000206031BD5A
S3150800467038B504000D003948844231D038488442A0
S315080046802ED0384884422BD03748844228D0374821
S31508004690844225D03648844222D0364884421FD0E8
S315080046A0354884421CD03548844219D0344884425F
S315080046B016D03448844213D03448844210D0344843
S315080046C084420DD0334884420AD03348844207D006
S315080046D03248844204D040F27B212B48FEF798FAF0
S315080046E0ADB2656031BD10B504001C48844232D0B5
S315080046F01B4884422FD01B4884422CD01A48844237
S3150800470029D01A48844226D01948844223D0194809
S31508004710844220D0184884421DD0184884421AD0B2
S315080047201748844217D01748844214D01748844241
S3150800473011D0174884420ED0164884420BD016482A
S31508004740844208D01548844205D040F28A21DFF811
S315080047503805FEF75DFA606880B210BD1060024049
S315080047602860024040600240586002407060024083
S3150800477088600240A0600240B860024010640240AF
S3150800478028640240406402404CB90008586402405C
S315080047907064024088640240A0640240B864024023
S315080047A0086002403D0000200C600240400F0020D7
S315080047B000003D20086402400C6402402DE9F041E7
S315080047C004000D0000265FF00008B148844237D087
S315080047D0B048844234D0B048844231D0AF4884428D
S315080047E02ED0AF4884422BD0AE48844228D0AE485B
S315080047F0844225D0AD48844222D0AD4884421FD099
S31508004800AC4884421CD0AC48844219D0DFF8A803CF
S31508004810844215D0DFF8A403844211D0DFF8A00340
S3150800482084420DD0DFF89C03844209D0DFF8980350
S31508004830844205D040F2F331DFF84C04FEF7E8F97C
S31508004840DFF84804854200F09D80DFF8440485427D
S3150800485000F09880DFF83C04854200F09380DFF88A
S315080048603804854200F08E80DFF83004854200F077
S315080048708980DFF82C04854200F08480DFF8240460
S31508004880854200F07F80DFF8200485427AD0DFF881
S315080048901C04854276D0DFF81804854272D0B5F13B
S315080048A0815F6FD0DFF80C0485426BD0DFF808040F
S315080048B0854267D0DFF80404854263D0DFF8000438
S315080048C085425FD0B5F1C05F5CD0B5F1A05F59D025
S315080048D0B5F1905F56D0B5F1885F53D0B5F1825FD8
S315080048E050D0DFF8E00385424CD0DFF8DC03854280
S315080048F048D0DFF8D803854244D0DFF8D403854290
S3150800490040D0DFF8D00385423CD0DFF8CC0385429F
S3150800491038D0DFF8C803854234D0DFF8C4038542AF
S3150800492030D0DFF8C00385422CD0DFF8BC038542BF
S3150800493028D0DFF8B803854224D0DFF8B4038542CF
S3150800494020D0DFF8B00385421CD0DFF8AC038542DF
S3150800495018D0DFF8A803854214D0B5F1205F11D02E
S31508004960B5F1105F0ED0B5F1085F0BD0B5F1045F55
S3150800497008D0B5F1015F05D04FF47D71DFF8080363
S31508004980FEF746F94A48844203D2DFF87403070063
S3150800499002E0DFF870030700A80002D578688046B1
S315080049A001E038688046DFF8600310EA080818EA6C
S315080049B0050F02D00120060001E0002006003000A5
S315080049C0C0B2BDE8F08170B504000D0030488442DD
S315080049D032D0304884422FD02F4884422CD02F48DA
S315080049E0844229D02E48844226D02E48844223D099
S315080049F02D48844220D02D4884421DD02C4884421C
S31508004A001AD02C48844217D02B48844214D06A48BE
S31508004A10844211D0694884420ED0694884420BD03A
S31508004A206848844208D06848844205D040F2344138
S31508004A30DFF85402FEF7ECF815F04050B0F1405F8D
S31508004A4008D015F0405F05D0DFF8C002054201D155
S31508004A50002D05D140F23541DFF82C02FEF7D8F8D3
S31508004A601348844203D2DFF89802060002E0DFF812
S31508004A7094020600A80004D5DFF88C022840F060EE
S31508004A8003E0DFF884022840B06070BD3F801CF068
S31508004A9010600240286002404060024058600240B0
S31508004AA07060024088600240A0600240B860024020
S31508004AB010640240286402404064024070B5040055
S31508004AC00D001600DFF8480284423CD0DFF84402A5
S31508004AD0844238D0DFF84002844234D0DFF83C0202
S31508004AE0844230D0DFF8380284422CD0DFF8340212
S31508004AF0844228D0DFF83002844224D0DFF82C0222
S31508004B00844220D0DFF8280284421CD0DFF8240231
S31508004B10844218D0DFF82002844214D02648844202
S31508004B2011D0264884420ED0254884420BD0254809
S31508004B30844208D02448844205D040F26141DFF817
S31508004B404801FEF765F87FF09E00054201D1002D69
S31508004B5005D140F26241DFF83001FEF759F8F6B2A6
S31508004B60002E08D0F6B2012E05D040F26341DFF8D8
S31508004B701801FEF74DF828060CD5F6B2002E04D01B
S31508004B80606950F08000606104E060697FF0800130
S31508004B9008406061802D0DD0F6B2002E05D0206841
S31508004BA015F01E010843206004E0206815F01E0178
S31508004BB08843206070BD000058640240706402405B
S31508004BC088640240A0640240B864024070B50400DC
S31508004BD00D004F48844231D04E4884422ED04E486C
S31508004BE084422BD04D48844228D04D48844225D053
S31508004BF04C48844222D04C4884421FD04B488442B9
S31508004C001CD04B48844219D04A48844216D04A4898
S31508004C10844213D04948844210D0494884420DD072
S31508004C20484884420AD04848844207D047488442C4
S31508004C3004D040F2E9411448FDF7EAFF15F0405068
S31508004C40B0F1405F07D015F0405F04D0002D02D0C8
S31508004C503F48054204D040F2EA410B48FDF7D8FF29
S31508004C603348844202D22648060001E02548060059
S31508004C70A80003D524482840F06002E022482840CE
S31508004C80B06070BD000000004CB90008200000109C
S31508004C9010000010080000100400801001008010A9
S31508004CA000080010000400100002001000010010A7
S31508004CB0400000100000101000000810000004104A
S31508004CC0000001102000002010000020080000202D
S31508004CD00400002001000020000800200004002035
S31508004CE000020020000100204000002000002020D3
S31508004CF00000102000000820000004200000012009
S31508004D0000600240006402407D0F7D0F82F002C001
S31508004D10106002402860024040600240586002402D
S31508004D207060024088600240A0600240B86002409D
S31508004D3010640240286402404064024058640240FD
S31508004D407064024088640240A0640240B86402406D
S31508004D50820082402DE9F04704000D001600012765
S31508004D605FF000082068DFF8C01A884225D0DFF80F
S31508004D70BC1A884228D0DFF8B81A88420FD0DFF864
S31508004D80B41A884204D0DFF8B01A88420ED022E05E
S31508004D90DFF8A80A8046606800F06CFC1DE0DFF8C2
S31508004DA0A00A8046606800F0ABFB16E0DFF8940ABC
S31508004DB08046606800F001FC0FE0DFF88C0A804648
S31508004DC0606800F035FB08E0DFF8800A8046606816
S31508004DD000F0ACFC01E000200700B8F1000F22D07B
S31508004DE0EDB2002D03D0D8F81400FCF7BCFB5FF039
S31508004DF03C095FF0000A524649464046FCF774FCF7
S31508004E00C8F820603000FCF717FBC8F81400D8F87B
S31508004E101400002807D1502080F31188BFF34F8F64
S31508004E20BFF36F8FFEE73800C0B2BDE8F087010018
S31508004E3000200A68DFF8F0399A421CD0DFF8EC390E
S31508004E409A421CD0DFF8E8399A420CD0DFF8E439E8
S31508004E509A4204D0DFF8E0399A4208D013E0DFF826
S31508004E60DC2910000FE0DFF8D82910000BE0DFF886
S31508004E70D429100007E0DFF8D029100003E0DFF896
S31508004E80CC291000FFE770472DE9F94F81B00C00D7
S31508004E9015000198FFF7CBFF060001275FF0000811
S31508004EA0B069F169884204D2F069B169401A80464E
S31508004EB006E0306AB169401A8046F06910EB0808C6
S31508004EC045453CD2B0692818316A884223D3306AEE
S31508004ED0B169401A00907069B16900EB0109009A3E
S31508004EE021004846FEF7FEFF306AB169401A04EB16
S31508004EF0000B306A281AB16911EB0009D6F814A01C
S31508004F004A4659465046FEF7EDFFB069316A691AB6
S31508004F100818B0610BE07069B16900EB01092A0055
S31508004F2021004846FEF7DEFFB0692818B0610298EE
S31508004F3000F00BF8002804D10020070001E000204B
S31508004F4007003800C0B2BDE8FE8FF8B50400012599
S31508004F502688A7892000DFF8D018884200F08D80BF
S31508004F60DFF8C818884200F0B180DFF8C418884214
S31508004F7031D0DFF8C018884204D0DFF8BC18884260
S31508004F8052D0CCE0300625D5380623D4DFF8AC0855
S31508004F904069DFF8A818C969415C89B2DFF8940846
S31508004FA000F029FEDFF89408C069401CDFF88C1869
S31508004FB0C861DFF88808C069DFF88018096A88427E
S31508004FC003D30020DFF87418C8610121DFF86408EC
S31508004FD000F0B1FCA5E0300625D5380623D4DFF865
S31508004FE060084069DFF85818C969415C89B2DFF87A
S31508004FF0400800F000FEDFF84808C069401CDFF8EA
S315080050004018C861DFF83808C069DFF83418096A3B
S31508005010884203D30020DFF82818C8610121DFF889
S31508005020100800F088FC7CE0300625D5380623D425
S31508005030DFF810084069DFF80C18C969415C89B2C5
S31508005040DFF8F40700F0D7FDDFF8F807C069401C61
S31508005050DFF8F017C861DFF8EC07C069DFF8E41776
S31508005060096A884203D30020DFF8D817C8610121EE
S31508005070DFF8C40700F05FFC53E0300625D5380694
S3150800508023D4DFF8C4074069DFF8BC17C969415C57
S3150800509089B2DFF8940700F0AEFDDFF8AC07C06907
S315080050A0401CDFF8A417C861DFF89C07C069DFF861
S315080050B09817096A884203D30020DFF88C17C8615D
S315080050C00121DFF8640700F036FC2AE0300625D512
S315080050D0380623D4DFF874074069DFF87017C96902
S315080050E0415C89B2DFF8440700F085FDDFF85C070C
S315080050F0C069401CDFF85417C861DFF85007C0695B
S31508005100DFF84817096A884203D30020DFF83C17FE
S31508005110C8610121DFF8140700F00DFC01E000204A
S3150800512005002800C0B2F2BD70B504000D000126C6
S315080051302000DFF8F416884200F08780DFF8EC16C6
S31508005140884200F0A980DFF8E81688422FD0DFF8F9
S31508005150E416884204D0DFF8E01688424ED0C8E04C
S31508005160DFF8D806C06ADFF8D416896A88421BD0E9
S31508005170DFF8C806406ADFF8C416C96A405C2870BA
S31508005180DFF8B806C06A401CDFF8B016C862DFF858
S31508005190AC06C06ADFF8A416096B884206D300205D
S315080051A0DFF89816C86201E000200600A3E0DFF8E1
S315080051B09006C06ADFF88816896A88421BD0DFF82D
S315080051C08006406ADFF87816C96A405C2870DFF8FE
S315080051D07006C06A401CDFF86816C862DFF8600609
S315080051E0C06ADFF85C16096B884206D30020DFF830
S315080051F05016C86201E0002006007CE0DFF844068D
S31508005200C06ADFF84016896A88421BD0DFF8340680
S31508005210406ADFF83016C96A405C2870DFF8240651
S31508005220C06A401CDFF81C16C862DFF81806C06A98
S31508005230DFF81016096B884206D30020DFF804163B
S31508005240C86201E00020060055E0DFF8FC05C06AE8
S31508005250DFF8F415896A88421BD0DFF8EC05406A46
S31508005260DFF8E415C96A405C2870DFF8DC05C06A17
S31508005270401CDFF8D415C862DFF8CC05C06ADFF831
S31508005280C815096B884206D30020DFF8BC15C8622A
S3150800529001E0002006002EE0DFF8B405FFF723FA48
S315080052A0DFF8A815C96ADFF8A425126B80B2101AB0
S315080052B081421BD0DFF89405406ADFF89015C96A69
S315080052C0405C2870DFF88405C06A401CDFF87C154E
S315080052D0C862DFF87805C06ADFF87015096B88427E
S315080052E006D30020DFF86415C86201E00020060036
S315080052F001E0002006003000C0B270BD2DE9F84379
S3150800530004000D0016001F005FF000082000FFF7DC
S315080053108EFD8146B9F1000F32D0D9F82400002855
S3150800532003D0D9F82400FCF71EF9C9F83050D9F88B
S315080053303000FCF781F8C9F82400D9F824000028C1
S3150800534007D1502080F31188BFF34F8FBFF36F8FBB
S31508005350FEE7C9F83460C9F838702068DFF8CC145D
S31508005360884204D00121206800F0D7FA06E000F050
S315080053700BF80121DFF8B40400F0C1FA01208046D9
S315080053804046C0B2BDE8F28300B591B00C208DF856
S31508005390000005208DF8010005208DF80200012087
S315080053A08DF80300684600F0E5FC0021DFF8A0044C
S315080053B0FFF7FFF8DFF89804FEF78CFE01A8FFF761
S315080053C0D9F85FF000600190DFF8880402900020A9
S315080053D006904FF4806007900020089000200990FE
S315080053E04FF480700A905FF400300B9000200C9008
S315080053F000200E9000200F90DFF85004406A0390BA
S31508005400DFF84804006B05900020049001A9DFF836
S315080054104004FEF754FF01224021DFF8100400F093
S315080054202FFC0121DFF82804FFF7C3F811B000BDEF
S3150800543010B588B004000121012000F076FD012195
S315080054405FF4001000F071FD01215FF4003000F0F8
S315080054509DFD07220221DFF8000400F0DDFF072288
S315080054600321DFF8F40300F0D7FF0021DFF8B803C3
S3150800547000F053FA0021DFF8B00300F05CFA0021CF
S31508005480DFF8A40300F074FB0C20019002208DF8CD
S31508005490090002208DF8080000208DF80A00012076
S315080054A08DF80B0001A9DFF8B00300F0DDFD0394C9
S315080054B00020ADF810000020ADF812000020ADF86D
S315080054C014000020ADF818000C20ADF8160003A94A
S315080054D0D54800F03FFA0121D34800F049FB2620C1
S315080054E08DF8000005208DF8010000208DF80200D7
S315080054F001208DF80300684600F03CFC08B010BD9A
S3150800550010B588B004000121012000F00EFD01212C
S315080055105FF4002000F03AFD08220021CE4800F092
